{
  "abi": [
    {
      "inputs": [
        {
          "internalType": "string",
          "name": "name_",
          "type": "string"
        },
        {
          "internalType": "string",
          "name": "symbol_",
          "type": "string"
        }
      ],
      "stateMutability": "nonpayable",
      "type": "constructor"
    },
    {
      "anonymous": false,
      "inputs": [
        {
          "indexed": true,
          "internalType": "address",
          "name": "owner",
          "type": "address"
        },
        {
          "indexed": true,
          "internalType": "address",
          "name": "spender",
          "type": "address"
        },
        {
          "indexed": false,
          "internalType": "uint256",
          "name": "value",
          "type": "uint256"
        }
      ],
      "name": "Approval",
      "type": "event"
    },
    {
      "anonymous": false,
      "inputs": [
        {
          "indexed": true,
          "internalType": "address",
          "name": "previousOwner",
          "type": "address"
        },
        {
          "indexed": true,
          "internalType": "address",
          "name": "newOwner",
          "type": "address"
        }
      ],
      "name": "OwnershipTransferred",
      "type": "event"
    },
    {
      "anonymous": false,
      "inputs": [
        {
          "indexed": true,
          "internalType": "address",
          "name": "from",
          "type": "address"
        },
        {
          "indexed": true,
          "internalType": "address",
          "name": "to",
          "type": "address"
        },
        {
          "indexed": false,
          "internalType": "uint256",
          "name": "value",
          "type": "uint256"
        }
      ],
      "name": "Transfer",
      "type": "event"
    },
    {
      "inputs": [],
      "name": "TOKEN_AMOUNT_FOR_AIRDROP_PER_ID",
      "outputs": [
        {
          "internalType": "uint256",
          "name": "",
          "type": "uint256"
        }
      ],
      "stateMutability": "view",
      "type": "function"
    },
    {
      "inputs": [],
      "name": "TRANSFER_REQUEST_ID",
      "outputs": [
        {
          "internalType": "uint64",
          "name": "",
          "type": "uint64"
        }
      ],
      "stateMutability": "view",
      "type": "function"
    },
    {
      "inputs": [
        {
          "internalType": "address",
          "name": "",
          "type": "address"
        }
      ],
      "name": "addressToId",
      "outputs": [
        {
          "internalType": "uint256",
          "name": "",
          "type": "uint256"
        }
      ],
      "stateMutability": "view",
      "type": "function"
    },
    {
      "inputs": [
        {
          "internalType": "address",
          "name": "owner",
          "type": "address"
        },
        {
          "internalType": "address",
          "name": "spender",
          "type": "address"
        }
      ],
      "name": "allowance",
      "outputs": [
        {
          "internalType": "uint256",
          "name": "",
          "type": "uint256"
        }
      ],
      "stateMutability": "view",
      "type": "function"
    },
    {
      "inputs": [
        {
          "internalType": "address",
          "name": "spender",
          "type": "address"
        },
        {
          "internalType": "uint256",
          "name": "amount",
          "type": "uint256"
        }
      ],
      "name": "approve",
      "outputs": [
        {
          "internalType": "bool",
          "name": "",
          "type": "bool"
        }
      ],
      "stateMutability": "nonpayable",
      "type": "function"
    },
    {
      "inputs": [
        {
          "internalType": "address",
          "name": "account",
          "type": "address"
        }
      ],
      "name": "balanceOf",
      "outputs": [
        {
          "internalType": "uint256",
          "name": "",
          "type": "uint256"
        }
      ],
      "stateMutability": "view",
      "type": "function"
    },
    {
      "inputs": [],
      "name": "decimals",
      "outputs": [
        {
          "internalType": "uint8",
          "name": "",
          "type": "uint8"
        }
      ],
      "stateMutability": "view",
      "type": "function"
    },
    {
      "inputs": [
        {
          "internalType": "address",
          "name": "spender",
          "type": "address"
        },
        {
          "internalType": "uint256",
          "name": "subtractedValue",
          "type": "uint256"
        }
      ],
      "name": "decreaseAllowance",
      "outputs": [
        {
          "internalType": "bool",
          "name": "",
          "type": "bool"
        }
      ],
      "stateMutability": "nonpayable",
      "type": "function"
    },
    {
      "inputs": [],
      "name": "getSupportedRequests",
      "outputs": [
        {
          "internalType": "uint64[]",
          "name": "arr",
          "type": "uint64[]"
        }
      ],
      "stateMutability": "view",
      "type": "function"
    },
    {
      "inputs": [
        {
          "internalType": "uint64",
          "name": "requestId",
          "type": "uint64"
        }
      ],
      "name": "getZKPRequest",
      "outputs": [
        {
          "components": [
            {
              "internalType": "uint256",
              "name": "schema",
              "type": "uint256"
            },
            {
              "internalType": "uint256",
              "name": "slotIndex",
              "type": "uint256"
            },
            {
              "internalType": "uint256",
              "name": "operator",
              "type": "uint256"
            },
            {
              "internalType": "uint256[]",
              "name": "value",
              "type": "uint256[]"
            },
            {
              "internalType": "string",
              "name": "circuitId",
              "type": "string"
            }
          ],
          "internalType": "struct ICircuitValidator.CircuitQuery",
          "name": "",
          "type": "tuple"
        }
      ],
      "stateMutability": "view",
      "type": "function"
    },
    {
      "inputs": [
        {
          "internalType": "uint256",
          "name": "",
          "type": "uint256"
        }
      ],
      "name": "idToAddress",
      "outputs": [
        {
          "internalType": "address",
          "name": "",
          "type": "address"
        }
      ],
      "stateMutability": "view",
      "type": "function"
    },
    {
      "inputs": [
        {
          "internalType": "address",
          "name": "spender",
          "type": "address"
        },
        {
          "internalType": "uint256",
          "name": "addedValue",
          "type": "uint256"
        }
      ],
      "name": "increaseAllowance",
      "outputs": [
        {
          "internalType": "bool",
          "name": "",
          "type": "bool"
        }
      ],
      "stateMutability": "nonpayable",
      "type": "function"
    },
    {
      "inputs": [],
      "name": "name",
      "outputs": [
        {
          "internalType": "string",
          "name": "",
          "type": "string"
        }
      ],
      "stateMutability": "view",
      "type": "function"
    },
    {
      "inputs": [],
      "name": "owner",
      "outputs": [
        {
          "internalType": "address",
          "name": "",
          "type": "address"
        }
      ],
      "stateMutability": "view",
      "type": "function"
    },
    {
      "inputs": [
        {
          "internalType": "address",
          "name": "",
          "type": "address"
        },
        {
          "internalType": "uint64",
          "name": "",
          "type": "uint64"
        }
      ],
      "name": "proofs",
      "outputs": [
        {
          "internalType": "bool",
          "name": "",
          "type": "bool"
        }
      ],
      "stateMutability": "view",
      "type": "function"
    },
    {
      "inputs": [],
      "name": "renounceOwnership",
      "outputs": [],
      "stateMutability": "nonpayable",
      "type": "function"
    },
    {
      "inputs": [
        {
          "internalType": "uint64",
          "name": "",
          "type": "uint64"
        }
      ],
      "name": "requestQueries",
      "outputs": [
        {
          "internalType": "uint256",
          "name": "schema",
          "type": "uint256"
        },
        {
          "internalType": "uint256",
          "name": "slotIndex",
          "type": "uint256"
        },
        {
          "internalType": "uint256",
          "name": "operator",
          "type": "uint256"
        },
        {
          "internalType": "string",
          "name": "circuitId",
          "type": "string"
        }
      ],
      "stateMutability": "view",
      "type": "function"
    },
    {
      "inputs": [
        {
          "internalType": "uint64",
          "name": "",
          "type": "uint64"
        }
      ],
      "name": "requestValidators",
      "outputs": [
        {
          "internalType": "contract ICircuitValidator",
          "name": "",
          "type": "address"
        }
      ],
      "stateMutability": "view",
      "type": "function"
    },
    {
      "inputs": [
        {
          "internalType": "uint64",
          "name": "requestId",
          "type": "uint64"
        },
        {
          "internalType": "contract ICircuitValidator",
          "name": "validator",
          "type": "address"
        },
        {
          "components": [
            {
              "internalType": "uint256",
              "name": "schema",
              "type": "uint256"
            },
            {
              "internalType": "uint256",
              "name": "slotIndex",
              "type": "uint256"
            },
            {
              "internalType": "uint256",
              "name": "operator",
              "type": "uint256"
            },
            {
              "internalType": "uint256[]",
              "name": "value",
              "type": "uint256[]"
            },
            {
              "internalType": "string",
              "name": "circuitId",
              "type": "string"
            }
          ],
          "internalType": "struct ICircuitValidator.CircuitQuery",
          "name": "query",
          "type": "tuple"
        }
      ],
      "name": "setZKPRequest",
      "outputs": [
        {
          "internalType": "bool",
          "name": "",
          "type": "bool"
        }
      ],
      "stateMutability": "nonpayable",
      "type": "function"
    },
    {
      "inputs": [
        {
          "internalType": "uint64",
          "name": "requestId",
          "type": "uint64"
        },
        {
          "internalType": "uint256[]",
          "name": "inputs",
          "type": "uint256[]"
        },
        {
          "internalType": "uint256[2]",
          "name": "a",
          "type": "uint256[2]"
        },
        {
          "internalType": "uint256[2][2]",
          "name": "b",
          "type": "uint256[2][2]"
        },
        {
          "internalType": "uint256[2]",
          "name": "c",
          "type": "uint256[2]"
        }
      ],
      "name": "submitZKPResponse",
      "outputs": [
        {
          "internalType": "bool",
          "name": "",
          "type": "bool"
        }
      ],
      "stateMutability": "nonpayable",
      "type": "function"
    },
    {
      "inputs": [
        {
          "internalType": "uint256",
          "name": "",
          "type": "uint256"
        }
      ],
      "name": "supportedRequests",
      "outputs": [
        {
          "internalType": "uint64",
          "name": "",
          "type": "uint64"
        }
      ],
      "stateMutability": "view",
      "type": "function"
    },
    {
      "inputs": [],
      "name": "symbol",
      "outputs": [
        {
          "internalType": "string",
          "name": "",
          "type": "string"
        }
      ],
      "stateMutability": "view",
      "type": "function"
    },
    {
      "inputs": [],
      "name": "totalSupply",
      "outputs": [
        {
          "internalType": "uint256",
          "name": "",
          "type": "uint256"
        }
      ],
      "stateMutability": "view",
      "type": "function"
    },
    {
      "inputs": [
        {
          "internalType": "address",
          "name": "to",
          "type": "address"
        },
        {
          "internalType": "uint256",
          "name": "amount",
          "type": "uint256"
        }
      ],
      "name": "transfer",
      "outputs": [
        {
          "internalType": "bool",
          "name": "",
          "type": "bool"
        }
      ],
      "stateMutability": "nonpayable",
      "type": "function"
    },
    {
      "inputs": [
        {
          "internalType": "address",
          "name": "from",
          "type": "address"
        },
        {
          "internalType": "address",
          "name": "to",
          "type": "address"
        },
        {
          "internalType": "uint256",
          "name": "amount",
          "type": "uint256"
        }
      ],
      "name": "transferFrom",
      "outputs": [
        {
          "internalType": "bool",
          "name": "",
          "type": "bool"
        }
      ],
      "stateMutability": "nonpayable",
      "type": "function"
    },
    {
      "inputs": [
        {
          "internalType": "address",
          "name": "newOwner",
          "type": "address"
        }
      ],
      "name": "transferOwnership",
      "outputs": [],
      "stateMutability": "nonpayable",
      "type": "function"
    }
  ],
  "bytecode": {
    "object": "0x6080604052620000126012600a62000201565b6200001f90600562000216565b600c553480156200002f57600080fd5b506040516200252e3803806200252e8339810160408190526200005291620002f5565b81816003620000628382620003ee565b506004620000718282620003ee565b5050506200008e620000886200009660201b60201c565b6200009a565b5050620004ba565b3390565b600580546001600160a01b038381166001600160a01b0319831681179093556040519116919082907f8be0079c531659141344cd1fd0a4f28419497f9722a3daafe3b4186f6b6457e090600090a35050565b634e487b7160e01b600052601160045260246000fd5b600181815b8085111562000143578160001904821115620001275762000127620000ec565b808516156200013557918102915b93841c939080029062000107565b509250929050565b6000826200015c57506001620001fb565b816200016b57506000620001fb565b81600181146200018457600281146200018f57620001af565b6001915050620001fb565b60ff841115620001a357620001a3620000ec565b50506001821b620001fb565b5060208310610133831016604e8410600b8410161715620001d4575081810a620001fb565b620001e0838362000102565b8060001904821115620001f757620001f7620000ec565b0290505b92915050565b60006200020f83836200014b565b9392505050565b8082028115828204841417620001fb57620001fb620000ec565b634e487b7160e01b600052604160045260246000fd5b600082601f8301126200025857600080fd5b81516001600160401b038082111562000275576200027562000230565b604051601f8301601f19908116603f01168101908282118183101715620002a057620002a062000230565b81604052838152602092508683858801011115620002bd57600080fd5b600091505b83821015620002e15785820183015181830184015290820190620002c2565b600093810190920192909252949350505050565b600080604083850312156200030957600080fd5b82516001600160401b03808211156200032157600080fd5b6200032f8683870162000246565b935060208501519150808211156200034657600080fd5b50620003558582860162000246565b9150509250929050565b600181811c908216806200037457607f821691505b6020821081036200039557634e487b7160e01b600052602260045260246000fd5b50919050565b601f821115620003e957600081815260208120601f850160051c81016020861015620003c45750805b601f850160051c820191505b81811015620003e557828155600101620003d0565b5050505b505050565b81516001600160401b038111156200040a576200040a62000230565b62000422816200041b84546200035f565b846200039b565b602080601f8311600181146200045a5760008415620004415750858301515b600019600386901b1c1916600185901b178555620003e5565b600085815260208120601f198616915b828110156200048b578886015182559484019460019091019084016200046a565b5085821015620004aa5787850151600019600388901b60f8161c191681555b5050505050600190811b01905550565b61206480620004ca6000396000f3fe608060405234801561001057600080fd5b506004361061018e5760003560e01c806395d89b41116100de578063b68967e211610097578063dd62ed3e11610071578063dd62ed3e146103d9578063f1435326146103ec578063f2fde38b146103ff578063fee207e61461041257600080fd5b8063b68967e214610386578063c76d084514610399578063cb0e0d7d146103b957600080fd5b806395d89b41146102de57806396bf4741146102e6578063a457c2d714610309578063a87231141461031c578063a9059cbb14610345578063b45c0fdf1461035857600080fd5b806337ba95231161014b5780637042f36b116101255780637042f36b1461029157806370a082311461029a578063715018a6146102c35780638da5cb5b146102cd57600080fd5b806337ba952314610249578063395093511461025e57806363ec508f1461027157600080fd5b806306fdde0314610193578063095ea7b3146101b157806318160ddd146101d457806323b872dd146101e65780632a2d0c47146101f9578063313ce5671461023a575b600080fd5b61019b610425565b6040516101a8919061170a565b60405180910390f35b6101c46101bf366004611739565b6104b7565b60405190151581526020016101a8565b6002545b6040519081526020016101a8565b6101c46101f4366004611765565b6104d1565b6102226102073660046117a6565b600a602052600090815260409020546001600160a01b031681565b6040516001600160a01b0390911681526020016101a8565b604051601281526020016101a8565b6102516104f5565b6040516101a891906117bf565b6101c461026c366004611739565b61057e565b610279600181565b6040516001600160401b0390911681526020016101a8565b6101d8600c5481565b6101d86102a836600461180c565b6001600160a01b031660009081526020819052604090205490565b6102cb6105a0565b005b6005546001600160a01b0316610222565b61019b6105b4565b6102f96102f4366004611845565b6105c3565b6040516101a89493929190611860565b6101c4610317366004611739565b610676565b61022261032a366004611845565b6008602052600090815260409020546001600160a01b031681565b6101c4610353366004611739565b6106f6565b6101c461036636600461188f565b600660209081526000928352604080842090915290825290205460ff1681565b6101c4610394366004611a23565b610704565b6103ac6103a7366004611845565b610962565b6040516101a89190611b28565b6101d86103c736600461180c565b600b6020526000908152604090205481565b6101d86103e7366004611b88565b610abf565b6102796103fa3660046117a6565b610aea565b6102cb61040d36600461180c565b610b27565b6101c4610420366004611bc1565b610ba0565b60606003805461043490611ce8565b80601f016020809104026020016040519081016040528092919081815260200182805461046090611ce8565b80156104ad5780601f10610482576101008083540402835291602001916104ad565b820191906000526020600020905b81548152906001019060200180831161049057829003601f168201915b5050505050905090565b6000336104c5818585610d1e565b60019150505b92915050565b6000336104df858285610e42565b6104ea858585610ebc565b506001949350505050565b606060098054806020026020016040519081016040528092919081815260200182805480156104ad57602002820191906000526020600020906000905b82829054906101000a90046001600160401b03166001600160401b0316815260200190600801906020826007010492830192600103820291508084116105325790505050505050905090565b6000336104c58185856105918383610abf565b61059b9190611d22565b610d1e565b6105a861106b565b6105b260006110c5565b565b60606004805461043490611ce8565b6007602052600090815260409020805460018201546002830154600484018054939492939192916105f390611ce8565b80601f016020809104026020016040519081016040528092919081815260200182805461061f90611ce8565b801561066c5780601f106106415761010080835404028352916020019161066c565b820191906000526020600020905b81548152906001019060200180831161064f57829003601f168201915b5050505050905084565b600033816106848286610abf565b9050838110156106e95760405162461bcd60e51b815260206004820152602560248201527f45524332303a2064656372656173656420616c6c6f77616e63652062656c6f77604482015264207a65726f60d81b60648201526084015b60405180910390fd5b6104ea8286868403610d1e565b6000336104c5818585610ebc565b6001600160401b0385166000908152600860205260408120546001600160a01b03166107835760405162461bcd60e51b815260206004820152602860248201527f76616c696461746f72206973206e6f742073657420666f7220746869732072656044820152671c5d595cdd081a5960c21b60648201526084016106e0565b6001600160401b03861660009081526007602052604081205490036107f65760405162461bcd60e51b8152602060048201526024808201527f7175657279206973206e6f742073657420666f722074686973207265717565736044820152631d081a5960e21b60648201526084016106e0565b6001600160401b03861660009081526008602052604090205461082590879087906001600160a01b0316611117565b6001600160401b03861660009081526008602090815260408083205460079092529182902091516319f8754160e21b81526001600160a01b03909116916367e1d5049161087d91899189918991899190600401611de3565b602060405180830381865afa15801561089a573d6000803e3d6000fd5b505050506040513d601f19601f820116820180604052508101906108be9190611ed0565b61090a5760405162461bcd60e51b815260206004820152601b60248201527f70726f6f6620726573706f6e7365206973206e6f742076616c6964000000000060448201526064016106e0565b3360009081526006602090815260408083206001600160401b038a1684528252808320805460ff19166001179055600890915290205461095690879087906001600160a01b0316611207565b50600195945050505050565b6109946040518060a0016040528060008152602001600081526020016000815260200160608152602001606081525090565b6001600160401b038216600090815260076020908152604091829020825160a081018452815481526001820154818401526002820154818501526003820180548551818602810186019096528086529194929360608601939290830182828015610a1d57602002820191906000526020600020905b815481526020019060010190808311610a09575b50505050508152602001600482018054610a3690611ce8565b80601f0160208091040260200160405190810160405280929190818152602001828054610a6290611ce8565b8015610aaf5780601f10610a8457610100808354040283529160200191610aaf565b820191906000526020600020905b815481529060010190602001808311610a9257829003601f168201915b5050505050815250509050919050565b6001600160a01b03918216600090815260016020908152604080832093909416825291909152205490565b60098181548110610afa57600080fd5b9060005260206000209060049182820401919006600802915054906101000a90046001600160401b031681565b610b2f61106b565b6001600160a01b038116610b945760405162461bcd60e51b815260206004820152602660248201527f4f776e61626c653a206e6577206f776e657220697320746865207a65726f206160448201526564647265737360d01b60648201526084016106e0565b610b9d816110c5565b50565b6000610baa61106b565b6001600160401b0384166000908152600860205260409020546001600160a01b0316610c2e57600980546001810182556000919091527f6e1540171b6c0c960b71a7020d9f60077f6af931a8bbf590da0223dacf75c7af6004820401805460039092166008026101000a6001600160401b0381810219909316928716029190911790555b60608201516001600160401b03851660009081526007602090815260409091208251610c639360039092019290910190611665565b506040808301516001600160401b038616600090815260076020529190912060028101919091556080830151600490910190610c9f9082611f40565b506020808301516001600160401b0386166000908152600790925260409091206001810191909155825181556080830151600490910190610ce09082611f40565b50506001600160401b038316600090815260086020526040902080546001600160a01b0384166001600160a01b031990911617905560019392505050565b6001600160a01b038316610d805760405162461bcd60e51b8152602060048201526024808201527f45524332303a20617070726f76652066726f6d20746865207a65726f206164646044820152637265737360e01b60648201526084016106e0565b6001600160a01b038216610de15760405162461bcd60e51b815260206004820152602260248201527f45524332303a20617070726f766520746f20746865207a65726f206164647265604482015261737360f01b60648201526084016106e0565b6001600160a01b0383811660008181526001602090815260408083209487168084529482529182902085905590518481527f8c5be1e5ebec7d5bd14f71427d1e84f3dd0314c0f7b2291e5b200ac8c7c3b925910160405180910390a3505050565b6000610e4e8484610abf565b90506000198114610eb65781811015610ea95760405162461bcd60e51b815260206004820152601d60248201527f45524332303a20696e73756666696369656e7420616c6c6f77616e636500000060448201526064016106e0565b610eb68484848403610d1e565b50505050565b6001600160a01b038316610f205760405162461bcd60e51b815260206004820152602560248201527f45524332303a207472616e736665722066726f6d20746865207a65726f206164604482015264647265737360d81b60648201526084016106e0565b6001600160a01b038216610f825760405162461bcd60e51b815260206004820152602360248201527f45524332303a207472616e7366657220746f20746865207a65726f206164647260448201526265737360e81b60648201526084016106e0565b610f8d83838361136e565b6001600160a01b038316600090815260208190526040902054818110156110055760405162461bcd60e51b815260206004820152602660248201527f45524332303a207472616e7366657220616d6f756e7420657863656564732062604482015265616c616e636560d01b60648201526084016106e0565b6001600160a01b03848116600081815260208181526040808320878703905593871680835291849020805487019055925185815290927fddf252ad1be2c89b69c2b068fc378daa952ba7f163c4a11628f55a4df523b3ef910160405180910390a3610eb6565b6005546001600160a01b031633146105b25760405162461bcd60e51b815260206004820181905260248201527f4f776e61626c653a2063616c6c6572206973206e6f7420746865206f776e657260448201526064016106e0565b600580546001600160a01b038381166001600160a01b0319831681179093556040519116919082907f8be0079c531659141344cd1fd0a4f28419497f9722a3daafe3b4186f6b6457e090600090a35050565b600061119c83836001600160a01b0316639f442afa6040518163ffffffff1660e01b8152600401602060405180830381865afa15801561115b573d6000803e3d6000fd5b505050506040513d601f19601f8201168201806040525081019061117f9190611fff565b8151811061118f5761118f612018565b6020026020010151611413565b9050336001600160a01b03821614610eb65760405162461bcd60e51b815260206004820152602860248201527f6164647265737320696e2070726f6f66206973206e6f7420612073656e646572604482015267206164647265737360c01b60648201526084016106e0565b6001600160401b038316600114801561122d5750336000908152600b6020526040902054155b61128b5760405162461bcd60e51b815260206004820152602960248201527f70726f6f662063616e206e6f74206265207375626d6974746564206d6f7265206044820152687468616e206f6e636560b81b60648201526084016106e0565b600082826001600160a01b0316639f442afa6040518163ffffffff1660e01b8152600401602060405180830381865afa1580156112cc573d6000803e3d6000fd5b505050506040513d601f19601f820116820180604052508101906112f09190611fff565b8151811061130057611300612018565b6020908102919091018101516000818152600a9092526040909120549091506001600160a01b0316610eb65761133833600c54611570565b336000818152600b60209081526040808320859055938252600a90529190912080546001600160a01b0319169091179055505050565b6001600160a01b0382166000908152600660209081526040808320600180855292529091205460ff1615151461140e576040805162461bcd60e51b81526020600482015260248101919091527f6f6e6c79206964656e7469746965732077686f2070726f76696465642070726f60448201527f6f662061726520616c6c6f77656420746f207265636569766520746f6b656e7360648201526084016106e0565b505050565b60006104cb6115696115648460008190506008817eff00ff00ff00ff00ff00ff00ff00ff00ff00ff00ff00ff00ff00ff00ff00ff16901b6008827fff00ff00ff00ff00ff00ff00ff00ff00ff00ff00ff00ff00ff00ff00ff00ff0016901c1790506010817dffff0000ffff0000ffff0000ffff0000ffff0000ffff0000ffff0000ffff16901b6010827fffff0000ffff0000ffff0000ffff0000ffff0000ffff0000ffff0000ffff000016901c1790506020817bffffffff00000000ffffffff00000000ffffffff00000000ffffffff16901b6020827fffffffff00000000ffffffff00000000ffffffff00000000ffffffff0000000016901c17905060408177ffffffffffffffff0000000000000000ffffffffffffffff16901b60408277ffffffffffffffff0000000000000000ffffffffffffffff1916901c179050608081901b608082901c179050919050565b61163b565b6014015190565b6001600160a01b0382166115c65760405162461bcd60e51b815260206004820152601f60248201527f45524332303a206d696e7420746f20746865207a65726f20616464726573730060448201526064016106e0565b6115d26000838361136e565b80600260008282546115e49190611d22565b90915550506001600160a01b038216600081815260208181526040808320805486019055518481527fddf252ad1be2c89b69c2b068fc378daa952ba7f163c4a11628f55a4df523b3ef910160405180910390a35050565b60408051602080825281830190925260609160208201818036833750505060208101929092525090565b8280548282559060005260206000209081019282156116a0579160200282015b828111156116a0578251825591602001919060010190611685565b506116ac9291506116b0565b5090565b5b808211156116ac57600081556001016116b1565b60008151808452602060005b828110156116ec5784810182015186820183015281016116d1565b506000858301820152601f909101601f191690930190920192915050565b60208152600061171d60208301846116c5565b9392505050565b6001600160a01b0381168114610b9d57600080fd5b6000806040838503121561174c57600080fd5b823561175781611724565b946020939093013593505050565b60008060006060848603121561177a57600080fd5b833561178581611724565b9250602084013561179581611724565b929592945050506040919091013590565b6000602082840312156117b857600080fd5b5035919050565b6020808252825182820181905260009190848201906040850190845b818110156118005783516001600160401b0316835292840192918401916001016117db565b50909695505050505050565b60006020828403121561181e57600080fd5b813561171d81611724565b80356001600160401b038116811461184057600080fd5b919050565b60006020828403121561185757600080fd5b61171d82611829565b84815283602082015282604082015260806060820152600061188560808301846116c5565b9695505050505050565b600080604083850312156118a257600080fd5b82356118ad81611724565b91506118bb60208401611829565b90509250929050565b634e487b7160e01b600052604160045260246000fd5b60405160a081016001600160401b03811182821017156118fc576118fc6118c4565b60405290565b604080519081016001600160401b03811182821017156118fc576118fc6118c4565b604051601f8201601f191681016001600160401b038111828210171561194c5761194c6118c4565b604052919050565b600082601f83011261196557600080fd5b813560206001600160401b03821115611980576119806118c4565b8160051b61198f828201611924565b92835284810182019282810190878511156119a957600080fd5b83870192505b848310156119c8578235825291830191908301906119af565b979650505050505050565b600082601f8301126119e457600080fd5b6119ec611902565b8060408401858111156119fe57600080fd5b845b81811015611a18578035845260209384019301611a00565b509095945050505050565b60008060008060006101408688031215611a3c57600080fd5b611a4586611829565b94506020808701356001600160401b03811115611a6157600080fd5b611a6d89828a01611954565b9550506040611a7e89828a016119d3565b945088609f890112611a8f57600080fd5b611a97611902565b806101008a018b811115611aaa57600080fd5b60808b015b81811015611ace57611ac18d826119d3565b8452928501928401611aaf565b50819650611adc8c826119d3565b955050505050509295509295909350565b600081518084526020808501945080840160005b83811015611b1d57815187529582019590820190600101611b01565b509495945050505050565b602081528151602082015260208201516040820152604082015160608201526000606083015160a06080840152611b6260c0840182611aed565b90506080840151601f198483030160a0850152611b7f82826116c5565b95945050505050565b60008060408385031215611b9b57600080fd5b8235611ba681611724565b91506020830135611bb681611724565b809150509250929050565b600080600060608486031215611bd657600080fd5b611bdf84611829565b9250602080850135611bf081611724565b925060408501356001600160401b0380821115611c0c57600080fd5b9086019060a08289031215611c2057600080fd5b611c286118da565b82358152838301358482015260408301356040820152606083013582811115611c5057600080fd5b611c5c8a828601611954565b606083015250608083013582811115611c7457600080fd5b80840193505088601f840112611c8957600080fd5b823582811115611c9b57611c9b6118c4565b611cad601f8201601f19168601611924565b92508083528985828601011115611cc357600080fd5b8085850186850137600085828501015250816080820152809450505050509250925092565b600181811c90821680611cfc57607f821691505b602082108103611d1c57634e487b7160e01b600052602260045260246000fd5b50919050565b808201808211156104cb57634e487b7160e01b600052601160045260246000fd5b8060005b6002811015610eb6578151845260209384019390910190600101611d47565b60008154611d7381611ce8565b808552602060018381168015611d905760018114611daa57611dd8565b60ff1985168884015283151560051b880183019550611dd8565b866000528260002060005b85811015611dd05781548a8201860152908301908401611db5565b890184019650505b505050505092915050565b6000610140808352611df781840189611aed565b90506020611e0781850189611d43565b606084018760005b6002811015611e3657611e23838351611d43565b6040929092019190830190600101611e0f565b505050611e4660e0850187611d43565b83820361012085015284548252600180860154828401526002860154604084015260a0606084018190526003870180549185018290526000908152838120929160c08601905b80831015611ea95784548252938301939183019190850190611e8c565b508581036080870152611ebf8160048b01611d66565b9d9c50505050505050505050505050565b600060208284031215611ee257600080fd5b8151801515811461171d57600080fd5b601f82111561140e57600081815260208120601f850160051c81016020861015611f195750805b601f850160051c820191505b81811015611f3857828155600101611f25565b505050505050565b81516001600160401b03811115611f5957611f596118c4565b611f6d81611f678454611ce8565b84611ef2565b602080601f831160018114611fa25760008415611f8a5750858301515b600019600386901b1c1916600185901b178555611f38565b600085815260208120601f198616915b82811015611fd157888601518255948401946001909101908401611fb2565b5085821015611fef5787850151600019600388901b60f8161c191681555b5050505050600190811b01905550565b60006020828403121561201157600080fd5b5051919050565b634e487b7160e01b600052603260045260246000fdfea264697066735822122012f9c119d1d4c64ebec7af66427fcd366c3889d09772e658dad3948a38fbe22664736f6c63430008110033",
    "linkReferences": {}
  },
  "methodIdentifiers": {
    "TOKEN_AMOUNT_FOR_AIRDROP_PER_ID()": "7042f36b",
    "TRANSFER_REQUEST_ID()": "63ec508f",
    "addressToId(address)": "cb0e0d7d",
    "allowance(address,address)": "dd62ed3e",
    "approve(address,uint256)": "095ea7b3",
    "balanceOf(address)": "70a08231",
    "decimals()": "313ce567",
    "decreaseAllowance(address,uint256)": "a457c2d7",
    "getSupportedRequests()": "37ba9523",
    "getZKPRequest(uint64)": "c76d0845",
    "idToAddress(uint256)": "2a2d0c47",
    "increaseAllowance(address,uint256)": "39509351",
    "name()": "06fdde03",
    "owner()": "8da5cb5b",
    "proofs(address,uint64)": "b45c0fdf",
    "renounceOwnership()": "715018a6",
    "requestQueries(uint64)": "96bf4741",
    "requestValidators(uint64)": "a8723114",
    "setZKPRequest(uint64,address,(uint256,uint256,uint256,uint256[],string))": "fee207e6",
    "submitZKPResponse(uint64,uint256[],uint256[2],uint256[2][2],uint256[2])": "b68967e2",
    "supportedRequests(uint256)": "f1435326",
    "symbol()": "95d89b41",
    "totalSupply()": "18160ddd",
    "transfer(address,uint256)": "a9059cbb",
    "transferFrom(address,address,uint256)": "23b872dd",
    "transferOwnership(address)": "f2fde38b"
  },
  "id": 20
}