{
  "abi": [
    {
      "anonymous": false,
      "inputs": [
        {
          "indexed": false,
          "internalType": "uint8",
          "name": "version",
          "type": "uint8"
        }
      ],
      "name": "Initialized",
      "type": "event"
    },
    {
      "anonymous": false,
      "inputs": [
        {
          "indexed": true,
          "internalType": "address",
          "name": "previousOwner",
          "type": "address"
        },
        {
          "indexed": true,
          "internalType": "address",
          "name": "newOwner",
          "type": "address"
        }
      ],
      "name": "OwnershipTransferred",
      "type": "event"
    },
    {
      "inputs": [],
      "name": "getChallengeInputIndex",
      "outputs": [
        {
          "internalType": "uint256",
          "name": "index",
          "type": "uint256"
        }
      ],
      "stateMutability": "pure",
      "type": "function"
    },
    {
      "inputs": [],
      "name": "getCircuitId",
      "outputs": [
        {
          "internalType": "string",
          "name": "id",
          "type": "string"
        }
      ],
      "stateMutability": "pure",
      "type": "function"
    },
    {
      "inputs": [],
      "name": "getUserIdInputIndex",
      "outputs": [
        {
          "internalType": "uint256",
          "name": "index",
          "type": "uint256"
        }
      ],
      "stateMutability": "pure",
      "type": "function"
    },
    {
      "inputs": [
        {
          "internalType": "address",
          "name": "_verifierContractAddr",
          "type": "address"
        },
        {
          "internalType": "address",
          "name": "_stateContractAddr",
          "type": "address"
        }
      ],
      "name": "initialize",
      "outputs": [],
      "stateMutability": "nonpayable",
      "type": "function"
    },
    {
      "inputs": [],
      "name": "owner",
      "outputs": [
        {
          "internalType": "address",
          "name": "",
          "type": "address"
        }
      ],
      "stateMutability": "view",
      "type": "function"
    },
    {
      "inputs": [],
      "name": "renounceOwnership",
      "outputs": [],
      "stateMutability": "nonpayable",
      "type": "function"
    },
    {
      "inputs": [],
      "name": "revocationStateExpirationTime",
      "outputs": [
        {
          "internalType": "uint256",
          "name": "",
          "type": "uint256"
        }
      ],
      "stateMutability": "view",
      "type": "function"
    },
    {
      "inputs": [
        {
          "internalType": "uint256",
          "name": "expirationTime",
          "type": "uint256"
        }
      ],
      "name": "setRevocationStateExpirationTime",
      "outputs": [],
      "stateMutability": "nonpayable",
      "type": "function"
    },
    {
      "inputs": [],
      "name": "state",
      "outputs": [
        {
          "internalType": "contract IState",
          "name": "",
          "type": "address"
        }
      ],
      "stateMutability": "view",
      "type": "function"
    },
    {
      "inputs": [
        {
          "internalType": "address",
          "name": "newOwner",
          "type": "address"
        }
      ],
      "name": "transferOwnership",
      "outputs": [],
      "stateMutability": "nonpayable",
      "type": "function"
    },
    {
      "inputs": [],
      "name": "verifier",
      "outputs": [
        {
          "internalType": "contract IVerifier",
          "name": "",
          "type": "address"
        }
      ],
      "stateMutability": "view",
      "type": "function"
    },
    {
      "inputs": [
        {
          "internalType": "uint256[]",
          "name": "inputs",
          "type": "uint256[]"
        },
        {
          "internalType": "uint256[2]",
          "name": "a",
          "type": "uint256[2]"
        },
        {
          "internalType": "uint256[2][2]",
          "name": "b",
          "type": "uint256[2][2]"
        },
        {
          "internalType": "uint256[2]",
          "name": "c",
          "type": "uint256[2]"
        },
        {
          "components": [
            {
              "internalType": "uint256",
              "name": "schema",
              "type": "uint256"
            },
            {
              "internalType": "uint256",
              "name": "slotIndex",
              "type": "uint256"
            },
            {
              "internalType": "uint256",
              "name": "operator",
              "type": "uint256"
            },
            {
              "internalType": "uint256[]",
              "name": "value",
              "type": "uint256[]"
            },
            {
              "internalType": "string",
              "name": "circuitId",
              "type": "string"
            }
          ],
          "internalType": "struct ICircuitValidator.CircuitQuery",
          "name": "query",
          "type": "tuple"
        }
      ],
      "name": "verify",
      "outputs": [
        {
          "internalType": "bool",
          "name": "r",
          "type": "bool"
        }
      ],
      "stateMutability": "view",
      "type": "function"
    }
  ],
  "bytecode": {
    "object": "0x608060405234801561001057600080fd5b50611939806100206000396000f3fe608060405234801561001057600080fd5b50600436106100b45760003560e01c80637b47323c116100715780637b47323c1461017f5780638da5cb5b146101865780639f442afa14610197578063c19d93fb1461019e578063e79ce794146101b1578063f2fde38b146101c457600080fd5b806323962482146100b95780632b7ac3f3146100d5578063485cc9551461010057806359a2aeaa1461011557806367e1d50414610154578063715018a614610177575b600080fd5b6100c260675481565b6040519081526020015b60405180910390f35b6065546100e8906001600160a01b031681565b6040516001600160a01b0390911681526020016100cc565b61011361010e366004611298565b6101d7565b005b604080518082018252601881527f63726564656e7469616c41746f6d696351756572795369670000000000000000602082015290516100cc91906112cb565b61016761016236600461155e565b610325565b60405190151581526020016100cc565b610113610c34565b60016100c2565b6033546001600160a01b03166100e8565b60036100c2565b6066546100e8906001600160a01b031681565b6101136101bf36600461163f565b610c48565b6101136101d2366004611658565b610c55565b600054610100900460ff16158080156101f75750600054600160ff909116105b806102115750303b158015610211575060005460ff166001145b6102795760405162461bcd60e51b815260206004820152602e60248201527f496e697469616c697a61626c653a20636f6e747261637420697320616c72656160448201526d191e481a5b9a5d1a585b1a5e995960921b60648201526084015b60405180910390fd5b6000805460ff19166001179055801561029c576000805461ff0019166101001790555b610e10606755606580546001600160a01b038086166001600160a01b03199283161790925560668054928516929091169190911790556102da610cce565b8015610320576000805461ff0019169055604051600181527f7f26b83ff96e1f2b6a682f133852f6798a09c465da95921460cefb38474024989060200160405180910390a15b505050565b6065546040516361971b8760e11b81526000916001600160a01b03169063c32e370e9061035c908890889088908c906004016116a3565b602060405180830381865afa158015610379573d6000803e3d6000fd5b505050506040513d601f19601f8201168201806040525081019061039d919061173f565b6103fb5760405162461bcd60e51b815260206004820152602960248201527f61746f6d6963207175657279207369676e61747572652070726f6f66206973206044820152681b9bdd081d985b1a5960ba1b6064820152608401610270565b81600001518660078151811061041357610413611761565b6020026020010151146104865760405162461bcd60e51b815260206004820152603560248201527f77726f6e6720636c61696d20736368656d6120686173206265656e2075736564604482015274103337b910383937b7b31033b2b732b930ba34b7b760591b6064820152608401610270565b81602001518660088151811061049e5761049e611761565b6020026020010151146105195760405162461bcd60e51b815260206004820152603860248201527f77726f6e6720636c61696d206461746120736c6f7420686173206265656e207560448201527f73656420666f722070726f6f662067656e65726174696f6e00000000000000006064820152608401610270565b81604001518660098151811061053157610531611761565b6020026020010151146105ac5760405162461bcd60e51b815260206004820152603760248201527f77726f6e67207175657279206f70657261746f7220686173206265656e20757360448201527f656420666f722070726f6f662067656e65726174696f6e0000000000000000006064820152608401610270565b60005b82606001515181101561068557826060015181815181106105d2576105d2611761565b60200260200101518782600a6105e8919061178d565b815181106105f8576105f8611761565b6020026020010151146106735760405162461bcd60e51b815260206004820152603960248201527f77726f6e6720636f6d70617269736f6e2076616c756520686173206265656e2060448201527f7573656420666f722070726f6f662067656e65726174696f6e000000000000006064820152608401610270565b8061067d816117a0565b9150506105af565b5060008660018151811061069b5761069b611761565b602002602001015190506000876002815181106106ba576106ba611761565b602002602001015190506000886000815181106106d9576106d9611761565b602002602001015190506000896004815181106106f8576106f8611761565b6020026020010151905060008a60058151811061071757610717611761565b602090810291909101015160665460405163089935e560e31b8152600481018890529192506000916001600160a01b03909116906344c9af2890602401602060405180830381865afa158015610771573d6000803e3d6000fd5b505050506040513d601f19601f8201168201806040525081019061079591906117b9565b905080600003610815576107a98686610cfd565b6108105760405162461bcd60e51b815260206004820152603260248201527f557365722073746174652069736e277420696e20737461746520636f6e747261604482015271637420616e64206e6f742067656e6573697360701b6064820152608401610270565b610864565b8481146108645760405162461bcd60e51b815260206004820152601860248201527f75736572207374617465206973206e6f74206c617465737400000000000000006044820152606401610270565b60006108708486610cfd565b9050806109525760665460405163bb79571560e01b8152600481018790526000916001600160a01b03169063bb7957159060240160c060405180830381865afa1580156108c1573d6000803e3d6000fd5b505050506040513d601f19601f820116820180604052508101906108e591906117ea565b509450505050508085146109505760405162461bcd60e51b815260206004820152602c60248201527f49737375657220737461746520646f65736e277420657869737420696e20737460448201526b185d194818dbdb9d1c9858dd60a21b6064820152608401610270565b505b60665460405163089935e560e31b8152600481018690526000916001600160a01b0316906344c9af2890602401602060405180830381865afa15801561099c573d6000803e3d6000fd5b505050506040513d601f19601f820116820180604052508101906109c091906117b9565b905080600003610a4b576109d48585610cfd565b610a465760405162461bcd60e51b815260206004820152603c60248201527f4e6f6e2d5265766f636174696f6e2073746174652069736e277420696e20737460448201527f61746520636f6e747261637420616e64206e6f742067656e65736973000000006064820152608401610270565b610c20565b838114610c205760665460405163bb79571560e01b81526004810186905260009182916001600160a01b039091169063bb7957159060240160c060405180830381865afa158015610aa0573d6000803e3d6000fd5b505050506040513d601f19601f82011682018060405250810190610ac491906117ea565b50945050505091508060001480610adb5750868114155b15610b3d5760405162461bcd60e51b815260206004820152602c60248201527f737461746520696e207472616e736974696f6e20696e666f20636f6e7461696e60448201526b1cc81a5b9d985b1a59081a5960a21b6064820152608401610270565b81600003610bb35760405162461bcd60e51b815260206004820152603860248201527f4e6f6e2d4c617465737420737461746520646f65736e277420636f6e7461696e60448201527f207265706c6163656d656e7420696e666f726d6174696f6e00000000000000006064820152608401610270565b606754610bc08342611842565b1115610c1d5760405162461bcd60e51b815260206004820152602660248201527f4e6f6e2d5265766f636174696f6e207374617465206f662049737375657220656044820152651e1c1a5c995960d21b6064820152608401610270565b50505b5060019d9c50505050505050505050505050565b610c3c610e3c565b610c466000610e96565b565b610c50610e3c565b606755565b610c5d610e3c565b6001600160a01b038116610cc25760405162461bcd60e51b815260206004820152602660248201527f4f776e61626c653a206e6577206f776e657220697320746865207a65726f206160448201526564647265737360d01b6064820152608401610270565b610ccb81610e96565b50565b600054610100900460ff16610cf55760405162461bcd60e51b815260040161027090611855565b610c46610ee8565b600080610d0983610f18565b90506000610d168261105d565b90506000610d3382601b8451610d2c9190611842565b601b611087565b90506000604051806040016040528060028152602001600081525090506000610d5c8284611194565b90508051601d14610d7f5760405162461bcd60e51b8152600401610270906118a0565b6000610d8a82611211565b6040805160f083901b6001600160f01b03191660208201528151600281830301815260229091019091529091506000610dc38483611194565b90508051601f14610e165760405162461bcd60e51b815260206004820181905260248201527f69644279746573207265717569726573203331206c656e6774682061727261796044820152606401610270565b610e29610e24826020015190565b610f18565b8b14985050505050505050505b92915050565b6033546001600160a01b03163314610c465760405162461bcd60e51b815260206004820181905260248201527f4f776e61626c653a2063616c6c6572206973206e6f7420746865206f776e65726044820152606401610270565b603380546001600160a01b038381166001600160a01b0319831681179093556040519116919082907f8be0079c531659141344cd1fd0a4f28419497f9722a3daafe3b4186f6b6457e090600090a35050565b600054610100900460ff16610f0f5760405162461bcd60e51b815260040161027090611855565b610c4633610e96565b60008190506008817eff00ff00ff00ff00ff00ff00ff00ff00ff00ff00ff00ff00ff00ff00ff00ff16901b6008827fff00ff00ff00ff00ff00ff00ff00ff00ff00ff00ff00ff00ff00ff00ff00ff0016901c1790506010817dffff0000ffff0000ffff0000ffff0000ffff0000ffff0000ffff0000ffff16901b6010827fffff0000ffff0000ffff0000ffff0000ffff0000ffff0000ffff0000ffff000016901c1790506020817bffffffff00000000ffffffff00000000ffffffff00000000ffffffff16901b6020827fffffffff00000000ffffffff00000000ffffffff00000000ffffffff0000000016901c17905060408177ffffffffffffffff0000000000000000ffffffffffffffff16901b60408277ffffffffffffffff0000000000000000ffffffffffffffff1916901c179050608081901b608082901c179050919050565b60408051602080825281830190925260609160208201818036833750505060208101929092525090565b60608161109581601f61178d565b10156110d45760405162461bcd60e51b815260206004820152600e60248201526d736c6963655f6f766572666c6f7760901b6044820152606401610270565b6110de828461178d565b845110156111225760405162461bcd60e51b8152602060048201526011602482015270736c6963655f6f75744f66426f756e647360781b6044820152606401610270565b606082158015611141576040519150600082526020820160405261118b565b6040519150601f8416801560200281840101858101878315602002848b0101015b8183101561117a578051835260209283019201611162565b5050858452601f01601f1916604052505b50949350505050565b6060806040519050835180825260208201818101602087015b818310156111c55780518352602092830192016111ad565b50855184518101855292509050808201602086015b818310156111f25780518352602092830192016111da565b508651929092011591909101601f01601f191660405250905092915050565b60008151601d146112345760405162461bcd60e51b8152600401610270906118a0565b60005b82518110156112765782818151811061125257611252611761565b01602001516112649060f81c836118e1565b915061126f816117a0565b9050611237565b50919050565b80356001600160a01b038116811461129357600080fd5b919050565b600080604083850312156112ab57600080fd5b6112b48361127c565b91506112c26020840161127c565b90509250929050565b600060208083528351808285015260005b818110156112f8578581018301518582016040015282016112dc565b506000604082860101526040601f19601f8301168501019250505092915050565b634e487b7160e01b600052604160045260246000fd5b60405160a0810167ffffffffffffffff8111828210171561135257611352611319565b60405290565b6040805190810167ffffffffffffffff8111828210171561135257611352611319565b604051601f8201601f1916810167ffffffffffffffff811182821017156113a4576113a4611319565b604052919050565b600082601f8301126113bd57600080fd5b8135602067ffffffffffffffff8211156113d9576113d9611319565b8160051b6113e882820161137b565b928352848101820192828101908785111561140257600080fd5b83870192505b8483101561142157823582529183019190830190611408565b979650505050505050565b600082601f83011261143d57600080fd5b611445611358565b80604084018581111561145757600080fd5b845b81811015611471578035845260209384019301611459565b509095945050505050565b600060a0828403121561148e57600080fd5b61149661132f565b9050813581526020808301358183015260408301356040830152606083013567ffffffffffffffff808211156114cb57600080fd5b6114d7868387016113ac565b606085015260808501359150808211156114f057600080fd5b818501915085601f83011261150457600080fd5b81358181111561151657611516611319565b611528601f8201601f1916850161137b565b9150808252868482850101111561153e57600080fd5b808484018584013760008482840101525080608085015250505092915050565b6000806000806000610140868803121561157757600080fd5b853567ffffffffffffffff8082111561158f57600080fd5b61159b89838a016113ac565b9650602091506115ad89838a0161142c565b955088607f8901126115be57600080fd5b6115c6611358565b8060e08a018b8111156115d857600080fd5b60608b015b818110156115fd576115ef8d8261142c565b8452928501926040016115dd565b5081975061160b8c8261142c565b965050505061012088013591508082111561162557600080fd5b506116328882890161147c565b9150509295509295909350565b60006020828403121561165157600080fd5b5035919050565b60006020828403121561166a57600080fd5b6116738261127c565b9392505050565b8060005b600281101561169d57815184526020938401939091019060010161167e565b50505050565b60006101208083016116b5848961167a565b60408085018860005b60028110156116e5576116d283835161167a565b91830191602091909101906001016116be565b505050506116f660c085018761167a565b61010084019190915283519081905261014083019060209081860160005b8281101561173057815185529383019390830190600101611714565b50929998505050505050505050565b60006020828403121561175157600080fd5b8151801515811461167357600080fd5b634e487b7160e01b600052603260045260246000fd5b634e487b7160e01b600052601160045260246000fd5b80820180821115610e3657610e36611777565b6000600182016117b2576117b2611777565b5060010190565b6000602082840312156117cb57600080fd5b5051919050565b805167ffffffffffffffff8116811461129357600080fd5b60008060008060008060c0878903121561180357600080fd5b865195506020870151945061181a604088016117d2565b9350611828606088016117d2565b92506080870151915060a087015190509295509295509295565b81810381811115610e3657610e36611777565b6020808252602b908201527f496e697469616c697a61626c653a20636f6e7472616374206973206e6f74206960408201526a6e697469616c697a696e6760a81b606082015260800190565b60208082526021908201527f436865636b73756d207265717569726573203239206c656e67746820617272616040820152607960f81b606082015260800190565b61ffff8181168382160190808211156118fc576118fc611777565b509291505056fea264697066735822122003b29d5988c5dd6e98cca9f89189795af82335277fddd317935de042bc9f85bb64736f6c63430008110033",
    "linkReferences": {}
  },
  "methodIdentifiers": {
    "getChallengeInputIndex()": "9f442afa",
    "getCircuitId()": "59a2aeaa",
    "getUserIdInputIndex()": "7b47323c",
    "initialize(address,address)": "485cc955",
    "owner()": "8da5cb5b",
    "renounceOwnership()": "715018a6",
    "revocationStateExpirationTime()": "23962482",
    "setRevocationStateExpirationTime(uint256)": "e79ce794",
    "state()": "c19d93fb",
    "transferOwnership(address)": "f2fde38b",
    "verifier()": "2b7ac3f3",
    "verify(uint256[],uint256[2],uint256[2][2],uint256[2],(uint256,uint256,uint256,uint256[],string))": "67e1d504"
  },
  "id": 26
}