{
  "abi": [
    {
      "inputs": [],
      "stateMutability": "nonpayable",
      "type": "constructor"
    },
    {
      "anonymous": false,
      "inputs": [
        {
          "indexed": true,
          "internalType": "address",
          "name": "previousOwner",
          "type": "address"
        },
        {
          "indexed": true,
          "internalType": "address",
          "name": "newOwner",
          "type": "address"
        }
      ],
      "name": "OwnershipTransferred",
      "type": "event"
    },
    {
      "inputs": [],
      "name": "AGE_CHECK_ID",
      "outputs": [
        {
          "internalType": "uint64",
          "name": "",
          "type": "uint64"
        }
      ],
      "stateMutability": "view",
      "type": "function"
    },
    {
      "inputs": [],
      "name": "BANKLESSDAO_PARTICIPANT_CHECK_ID",
      "outputs": [
        {
          "internalType": "uint64",
          "name": "",
          "type": "uint64"
        }
      ],
      "stateMutability": "view",
      "type": "function"
    },
    {
      "inputs": [],
      "name": "CREDIT_SCORE_CHECK_ID",
      "outputs": [
        {
          "internalType": "uint64",
          "name": "",
          "type": "uint64"
        }
      ],
      "stateMutability": "view",
      "type": "function"
    },
    {
      "inputs": [],
      "name": "GPA_CHECK_ID",
      "outputs": [
        {
          "internalType": "uint64",
          "name": "",
          "type": "uint64"
        }
      ],
      "stateMutability": "view",
      "type": "function"
    },
    {
      "inputs": [],
      "name": "INCOME_CHECK_ID",
      "outputs": [
        {
          "internalType": "uint64",
          "name": "",
          "type": "uint64"
        }
      ],
      "stateMutability": "view",
      "type": "function"
    },
    {
      "inputs": [],
      "name": "SHEFI_PARTICIPANT_CHECK_ID",
      "outputs": [
        {
          "internalType": "uint64",
          "name": "",
          "type": "uint64"
        }
      ],
      "stateMutability": "view",
      "type": "function"
    },
    {
      "inputs": [
        {
          "internalType": "address",
          "name": "",
          "type": "address"
        }
      ],
      "name": "addressToId",
      "outputs": [
        {
          "internalType": "uint256",
          "name": "",
          "type": "uint256"
        }
      ],
      "stateMutability": "view",
      "type": "function"
    },
    {
      "inputs": [],
      "name": "getSupportedRequests",
      "outputs": [
        {
          "internalType": "uint64[]",
          "name": "arr",
          "type": "uint64[]"
        }
      ],
      "stateMutability": "view",
      "type": "function"
    },
    {
      "inputs": [
        {
          "internalType": "uint64",
          "name": "requestId",
          "type": "uint64"
        }
      ],
      "name": "getZKPRequest",
      "outputs": [
        {
          "components": [
            {
              "internalType": "uint256",
              "name": "schema",
              "type": "uint256"
            },
            {
              "internalType": "uint256",
              "name": "slotIndex",
              "type": "uint256"
            },
            {
              "internalType": "uint256",
              "name": "operator",
              "type": "uint256"
            },
            {
              "internalType": "uint256[]",
              "name": "value",
              "type": "uint256[]"
            },
            {
              "internalType": "string",
              "name": "circuitId",
              "type": "string"
            }
          ],
          "internalType": "struct ICircuitValidator.CircuitQuery",
          "name": "",
          "type": "tuple"
        }
      ],
      "stateMutability": "view",
      "type": "function"
    },
    {
      "inputs": [
        {
          "internalType": "uint256",
          "name": "",
          "type": "uint256"
        }
      ],
      "name": "idToAddress",
      "outputs": [
        {
          "internalType": "address",
          "name": "",
          "type": "address"
        }
      ],
      "stateMutability": "view",
      "type": "function"
    },
    {
      "inputs": [],
      "name": "owner",
      "outputs": [
        {
          "internalType": "address",
          "name": "",
          "type": "address"
        }
      ],
      "stateMutability": "view",
      "type": "function"
    },
    {
      "inputs": [
        {
          "internalType": "address",
          "name": "",
          "type": "address"
        },
        {
          "internalType": "uint64",
          "name": "",
          "type": "uint64"
        }
      ],
      "name": "proofs",
      "outputs": [
        {
          "internalType": "bool",
          "name": "",
          "type": "bool"
        }
      ],
      "stateMutability": "view",
      "type": "function"
    },
    {
      "inputs": [],
      "name": "renounceOwnership",
      "outputs": [],
      "stateMutability": "nonpayable",
      "type": "function"
    },
    {
      "inputs": [
        {
          "internalType": "uint64",
          "name": "",
          "type": "uint64"
        }
      ],
      "name": "requestQueries",
      "outputs": [
        {
          "internalType": "uint256",
          "name": "schema",
          "type": "uint256"
        },
        {
          "internalType": "uint256",
          "name": "slotIndex",
          "type": "uint256"
        },
        {
          "internalType": "uint256",
          "name": "operator",
          "type": "uint256"
        },
        {
          "internalType": "string",
          "name": "circuitId",
          "type": "string"
        }
      ],
      "stateMutability": "view",
      "type": "function"
    },
    {
      "inputs": [
        {
          "internalType": "uint64",
          "name": "",
          "type": "uint64"
        }
      ],
      "name": "requestValidators",
      "outputs": [
        {
          "internalType": "contract ICircuitValidator",
          "name": "",
          "type": "address"
        }
      ],
      "stateMutability": "view",
      "type": "function"
    },
    {
      "inputs": [
        {
          "internalType": "uint64",
          "name": "requestId",
          "type": "uint64"
        },
        {
          "internalType": "contract ICircuitValidator",
          "name": "validator",
          "type": "address"
        },
        {
          "components": [
            {
              "internalType": "uint256",
              "name": "schema",
              "type": "uint256"
            },
            {
              "internalType": "uint256",
              "name": "slotIndex",
              "type": "uint256"
            },
            {
              "internalType": "uint256",
              "name": "operator",
              "type": "uint256"
            },
            {
              "internalType": "uint256[]",
              "name": "value",
              "type": "uint256[]"
            },
            {
              "internalType": "string",
              "name": "circuitId",
              "type": "string"
            }
          ],
          "internalType": "struct ICircuitValidator.CircuitQuery",
          "name": "query",
          "type": "tuple"
        }
      ],
      "name": "setZKPRequest",
      "outputs": [
        {
          "internalType": "bool",
          "name": "",
          "type": "bool"
        }
      ],
      "stateMutability": "nonpayable",
      "type": "function"
    },
    {
      "inputs": [
        {
          "internalType": "uint64",
          "name": "requestId",
          "type": "uint64"
        },
        {
          "internalType": "uint256[]",
          "name": "inputs",
          "type": "uint256[]"
        },
        {
          "internalType": "uint256[2]",
          "name": "a",
          "type": "uint256[2]"
        },
        {
          "internalType": "uint256[2][2]",
          "name": "b",
          "type": "uint256[2][2]"
        },
        {
          "internalType": "uint256[2]",
          "name": "c",
          "type": "uint256[2]"
        }
      ],
      "name": "submitZKPResponse",
      "outputs": [
        {
          "internalType": "bool",
          "name": "",
          "type": "bool"
        }
      ],
      "stateMutability": "nonpayable",
      "type": "function"
    },
    {
      "inputs": [
        {
          "internalType": "uint256",
          "name": "",
          "type": "uint256"
        }
      ],
      "name": "supportedRequests",
      "outputs": [
        {
          "internalType": "uint64",
          "name": "",
          "type": "uint64"
        }
      ],
      "stateMutability": "view",
      "type": "function"
    },
    {
      "inputs": [
        {
          "internalType": "address",
          "name": "newOwner",
          "type": "address"
        }
      ],
      "name": "transferOwnership",
      "outputs": [],
      "stateMutability": "nonpayable",
      "type": "function"
    }
  ],
  "bytecode": {
    "object": "0x608060405234801561001057600080fd5b5061001a3361001f565b61006f565b600080546001600160a01b038381166001600160a01b0319831681178455604051919092169283917f8be0079c531659141344cd1fd0a4f28419497f9722a3daafe3b4186f6b6457e09190a35050565b61182b8061007e6000396000f3fe608060405234801561001057600080fd5b50600436106101215760003560e01c8063b45c0fdf116100ad578063c76d084511610071578063c76d084514610281578063cb0e0d7d146102a1578063f1435326146102cf578063f2fde38b146102e2578063fee207e6146102f557600080fd5b8063b45c0fdf14610218578063b68967e214610256578063bc106bb114610269578063bcc6ae7114610271578063bd737cd31461027957600080fd5b8063715018a6116100f4578063715018a6146101a95780638da5cb5b146101b357806396bf4741146101c457806397169011146101e7578063a8723114146101ef57600080fd5b80632a2d0c471461012657806330d261771461016c57806337ba95231461018c5780636854db8f146101a1575b600080fd5b61014f610134366004610f6a565b6005602052600090815260409020546001600160a01b031681565b6040516001600160a01b0390911681526020015b60405180910390f35b610174600281565b6040516001600160401b039091168152602001610163565b610194610308565b6040516101639190610f83565b610174600681565b6101b1610392565b005b6000546001600160a01b031661014f565b6101d76101d2366004610fe7565b6103a6565b604051610163949392919061104e565b610174600481565b61014f6101fd366004610fe7565b6003602052600090815260409020546001600160a01b031681565b610246610226366004611092565b600160209081526000928352604080842090915290825290205460ff1681565b6040519015158152602001610163565b610246610264366004611226565b610459565b610174600381565b610174600581565b610174600181565b61029461028f366004610fe7565b6106bc565b604051610163919061132b565b6102c16102af36600461138b565b60066020526000908152604090205481565b604051908152602001610163565b6101746102dd366004610f6a565b610816565b6101b16102f036600461138b565b610853565b6102466103033660046113a8565b6108cc565b6060600480548060200260200160405190810160405280929190818152602001828054801561038857602002820191906000526020600020906000905b82829054906101000a90046001600160401b03166001600160401b0316815260200190600801906020826007010492830192600103820291508084116103455790505b5050505050905090565b61039a610a47565b6103a46000610aa1565b565b6002602081905260009182526040909120805460018201549282015460048301805492949391926103d6906114cf565b80601f0160208091040260200160405190810160405280929190818152602001828054610402906114cf565b801561044f5780601f106104245761010080835404028352916020019161044f565b820191906000526020600020905b81548152906001019060200180831161043257829003601f168201915b5050505050905084565b6001600160401b0385166000908152600360205260408120546001600160a01b03166104dd5760405162461bcd60e51b815260206004820152602860248201527f76616c696461746f72206973206e6f742073657420666f7220746869732072656044820152671c5d595cdd081a5960c21b60648201526084015b60405180910390fd5b6001600160401b03861660009081526002602052604081205490036105505760405162461bcd60e51b8152602060048201526024808201527f7175657279206973206e6f742073657420666f722074686973207265717565736044820152631d081a5960e21b60648201526084016104d4565b6001600160401b03861660009081526003602052604090205461057f90879087906001600160a01b0316610af1565b6001600160401b03861660009081526003602090815260408083205460029092529182902091516319f8754160e21b81526001600160a01b03909116916367e1d504916105d7918991899189918991906004016115a9565b602060405180830381865afa1580156105f4573d6000803e3d6000fd5b505050506040513d601f19601f820116820180604052508101906106189190611696565b6106645760405162461bcd60e51b815260206004820152601b60248201527f70726f6f6620726573706f6e7365206973206e6f742076616c6964000000000060448201526064016104d4565b3360009081526001602081815260408084206001600160401b038b1685528252808420805460ff1916909317909255600390529020546106b090879087906001600160a01b0316610be7565b50600195945050505050565b6106ee6040518060a0016040528060008152602001600081526020016000815260200160608152602001606081525090565b6001600160401b038216600090815260026020818152604092839020835160a08101855281548152600182015481840152928101548385015260038101805485518185028101850190965280865293949193606086019383018282801561077457602002820191906000526020600020905b815481526020019060010190808311610760575b5050505050815260200160048201805461078d906114cf565b80601f01602080910402602001604051908101604052809291908181526020018280546107b9906114cf565b80156108065780601f106107db57610100808354040283529160200191610806565b820191906000526020600020905b8154815290600101906020018083116107e957829003601f168201915b5050505050815250509050919050565b6004818154811061082657600080fd5b9060005260206000209060049182820401919006600802915054906101000a90046001600160401b031681565b61085b610a47565b6001600160a01b0381166108c05760405162461bcd60e51b815260206004820152602660248201527f4f776e61626c653a206e6577206f776e657220697320746865207a65726f206160448201526564647265737360d01b60648201526084016104d4565b6108c981610aa1565b50565b60006108d6610a47565b6001600160401b0384166000908152600360205260409020546001600160a01b031661095a576004805460018101825560008290529081047f8a35acfbc15ff81a39ae7d344fd709f28e8600b4aa8c65c6b64bfe7fe36bd19b0180546001600160401b0380881660086003909516949094026101000a938402930219169190911790555b60608201516001600160401b0385166000908152600260209081526040909120825161098f9360039092019290910190610f0a565b506040808301516001600160401b0386166000908152600260208190529290209182015560808301516004909101906109c89082611707565b506020808301516001600160401b0386166000908152600290925260409091206001810191909155825181556080830151600490910190610a099082611707565b50506001600160401b038316600090815260036020526040902080546001600160a01b0384166001600160a01b031990911617905560019392505050565b6000546001600160a01b031633146103a45760405162461bcd60e51b815260206004820181905260248201527f4f776e61626c653a2063616c6c6572206973206e6f7420746865206f776e657260448201526064016104d4565b600080546001600160a01b038381166001600160a01b0319831681178455604051919092169283917f8be0079c531659141344cd1fd0a4f28419497f9722a3daafe3b4186f6b6457e09190a35050565b6000610b7683836001600160a01b0316639f442afa6040518163ffffffff1660e01b8152600401602060405180830381865afa158015610b35573d6000803e3d6000fd5b505050506040513d601f19601f82011682018060405250810190610b5991906117c6565b81518110610b6957610b696117df565b6020026020010151610d3e565b9050336001600160a01b03821614610be15760405162461bcd60e51b815260206004820152602860248201527f6164647265737320696e2070726f6f66206973206e6f7420612073656e646572604482015267206164647265737360c01b60648201526084016104d4565b50505050565b610bf083610ea1565b8015610c09575033600090815260066020526040902054155b610c675760405162461bcd60e51b815260206004820152602960248201527f70726f6f662063616e206e6f74206265207375626d6974746564206d6f7265206044820152687468616e206f6e636560b81b60648201526084016104d4565b600082826001600160a01b0316639f442afa6040518163ffffffff1660e01b8152600401602060405180830381865afa158015610ca8573d6000803e3d6000fd5b505050506040513d601f19601f82011682018060405250810190610ccc91906117c6565b81518110610cdc57610cdc6117df565b602090810291909101810151600081815260059092526040909120549091506001600160a01b0316610be157336000818152600660209081526040808320859055938252600590529190912080546001600160a01b0319169091179055505050565b6000610e9b610e94610e8f8460008190506008817eff00ff00ff00ff00ff00ff00ff00ff00ff00ff00ff00ff00ff00ff00ff00ff16901b6008827fff00ff00ff00ff00ff00ff00ff00ff00ff00ff00ff00ff00ff00ff00ff00ff0016901c1790506010817dffff0000ffff0000ffff0000ffff0000ffff0000ffff0000ffff0000ffff16901b6010827fffff0000ffff0000ffff0000ffff0000ffff0000ffff0000ffff0000ffff000016901c1790506020817bffffffff00000000ffffffff00000000ffffffff00000000ffffffff16901b6020827fffffffff00000000ffffffff00000000ffffffff00000000ffffffff0000000016901c17905060408177ffffffffffffffff0000000000000000ffffffffffffffff16901b60408277ffffffffffffffff0000000000000000ffffffffffffffff1916901c179050608081901b608082901c179050919050565b610ee0565b6014015190565b92915050565b60006006826001600160401b0316108015610ec657506001826001600160401b031610155b15610ed357506001919050565b506000919050565b919050565b60408051602080825281830190925260609160208201818036833750505060208101929092525090565b828054828255906000526020600020908101928215610f45579160200282015b82811115610f45578251825591602001919060010190610f2a565b50610f51929150610f55565b5090565b5b80821115610f515760008155600101610f56565b600060208284031215610f7c57600080fd5b5035919050565b6020808252825182820181905260009190848201906040850190845b81811015610fc45783516001600160401b031683529284019291840191600101610f9f565b50909695505050505050565b80356001600160401b0381168114610edb57600080fd5b600060208284031215610ff957600080fd5b61100282610fd0565b9392505050565b60008151808452602060005b82811015611030578481018201518682018301528101611015565b506000858301820152601f909101601f191690930190920192915050565b8481528360208201528260408201526080606082015260006110736080830184611009565b9695505050505050565b6001600160a01b03811681146108c957600080fd5b600080604083850312156110a557600080fd5b82356110b08161107d565b91506110be60208401610fd0565b90509250929050565b634e487b7160e01b600052604160045260246000fd5b60405160a081016001600160401b03811182821017156110ff576110ff6110c7565b60405290565b604080519081016001600160401b03811182821017156110ff576110ff6110c7565b604051601f8201601f191681016001600160401b038111828210171561114f5761114f6110c7565b604052919050565b600082601f83011261116857600080fd5b813560206001600160401b03821115611183576111836110c7565b8160051b611192828201611127565b92835284810182019282810190878511156111ac57600080fd5b83870192505b848310156111cb578235825291830191908301906111b2565b979650505050505050565b600082601f8301126111e757600080fd5b6111ef611105565b80604084018581111561120157600080fd5b845b8181101561121b578035845260209384019301611203565b509095945050505050565b6000806000806000610140868803121561123f57600080fd5b61124886610fd0565b94506020808701356001600160401b0381111561126457600080fd5b61127089828a01611157565b955050604061128189828a016111d6565b945088609f89011261129257600080fd5b61129a611105565b806101008a018b8111156112ad57600080fd5b60808b015b818110156112d1576112c48d826111d6565b84529285019284016112b2565b508196506112df8c826111d6565b955050505050509295509295909350565b600081518084526020808501945080840160005b8381101561132057815187529582019590820190600101611304565b509495945050505050565b602081528151602082015260208201516040820152604082015160608201526000606083015160a0608084015261136560c08401826112f0565b90506080840151601f198483030160a08501526113828282611009565b95945050505050565b60006020828403121561139d57600080fd5b81356110028161107d565b6000806000606084860312156113bd57600080fd5b6113c684610fd0565b92506020808501356113d78161107d565b925060408501356001600160401b03808211156113f357600080fd5b9086019060a0828903121561140757600080fd5b61140f6110dd565b8235815283830135848201526040830135604082015260608301358281111561143757600080fd5b6114438a828601611157565b60608301525060808301358281111561145b57600080fd5b80840193505088601f84011261147057600080fd5b823582811115611482576114826110c7565b611494601f8201601f19168601611127565b925080835289858286010111156114aa57600080fd5b8085850186850137600085828501015250816080820152809450505050509250925092565b600181811c908216806114e357607f821691505b60208210810361150357634e487b7160e01b600052602260045260246000fd5b50919050565b8060005b6002811015610be157815184526020938401939091019060010161150d565b60008154611539816114cf565b80855260206001838116801561155657600181146115705761159e565b60ff1985168884015283151560051b88018301955061159e565b866000528260002060005b858110156115965781548a820186015290830190840161157b565b890184019650505b505050505092915050565b60006101408083526115bd818401896112f0565b905060206115cd81850189611509565b606084018760005b60028110156115fc576115e9838351611509565b60409290920191908301906001016115d5565b50505061160c60e0850187611509565b83820361012085015284548252600180860154828401526002860154604084015260a0606084018190526003870180549185018290526000908152838120929160c08601905b8083101561166f5784548252938301939183019190850190611652565b5085810360808701526116858160048b0161152c565b9d9c50505050505050505050505050565b6000602082840312156116a857600080fd5b8151801515811461100257600080fd5b601f82111561170257600081815260208120601f850160051c810160208610156116df5750805b601f850160051c820191505b818110156116fe578281556001016116eb565b5050505b505050565b81516001600160401b03811115611720576117206110c7565b6117348161172e84546114cf565b846116b8565b602080601f83116001811461176957600084156117515750858301515b600019600386901b1c1916600185901b1785556116fe565b600085815260208120601f198616915b8281101561179857888601518255948401946001909101908401611779565b50858210156117b65787850151600019600388901b60f8161c191681555b5050505050600190811b01905550565b6000602082840312156117d857600080fd5b5051919050565b634e487b7160e01b600052603260045260246000fdfea2646970667358221220872fb201aabb44beb1ba49d51934a472c7e71dcd0cfb7470202a29d2215a02a764736f6c63430008110033",
    "linkReferences": {}
  },
  "methodIdentifiers": {
    "AGE_CHECK_ID()": "bd737cd3",
    "BANKLESSDAO_PARTICIPANT_CHECK_ID()": "bcc6ae71",
    "CREDIT_SCORE_CHECK_ID()": "30d26177",
    "GPA_CHECK_ID()": "bc106bb1",
    "INCOME_CHECK_ID()": "6854db8f",
    "SHEFI_PARTICIPANT_CHECK_ID()": "97169011",
    "addressToId(address)": "cb0e0d7d",
    "getSupportedRequests()": "37ba9523",
    "getZKPRequest(uint64)": "c76d0845",
    "idToAddress(uint256)": "2a2d0c47",
    "owner()": "8da5cb5b",
    "proofs(address,uint64)": "b45c0fdf",
    "renounceOwnership()": "715018a6",
    "requestQueries(uint64)": "96bf4741",
    "requestValidators(uint64)": "a8723114",
    "setZKPRequest(uint64,address,(uint256,uint256,uint256,uint256[],string))": "fee207e6",
    "submitZKPResponse(uint64,uint256[],uint256[2],uint256[2][2],uint256[2])": "b68967e2",
    "supportedRequests(uint256)": "f1435326",
    "transferOwnership(address)": "f2fde38b"
  },
  "id": 14
}