{
  "abi": [
    {
      "inputs": [],
      "stateMutability": "nonpayable",
      "type": "constructor"
    },
    {
      "anonymous": false,
      "inputs": [
        {
          "indexed": true,
          "internalType": "address",
          "name": "lenderAddress",
          "type": "address"
        },
        {
          "indexed": true,
          "internalType": "address",
          "name": "borrowerAddress",
          "type": "address"
        },
        {
          "indexed": false,
          "internalType": "uint256",
          "name": "amount",
          "type": "uint256"
        },
        {
          "components": [
            {
              "internalType": "address",
              "name": "lenderAddress",
              "type": "address"
            },
            {
              "internalType": "address",
              "name": "borrowerAddress",
              "type": "address"
            },
            {
              "internalType": "uint256",
              "name": "currentRepaymentAmount",
              "type": "uint256"
            },
            {
              "internalType": "uint256",
              "name": "principalBorrowAmount",
              "type": "uint256"
            },
            {
              "internalType": "uint256",
              "name": "interestRate",
              "type": "uint256"
            },
            {
              "internalType": "uint256",
              "name": "repayByTimestamp",
              "type": "uint256"
            },
            {
              "internalType": "uint256",
              "name": "createdDate",
              "type": "uint256"
            },
            {
              "components": [
                {
                  "internalType": "uint64[]",
                  "name": "requirementIds",
                  "type": "uint64[]"
                },
                {
                  "internalType": "address",
                  "name": "lender",
                  "type": "address"
                }
              ],
              "internalType": "struct PulpLibrary.Lender",
              "name": "lenderData",
              "type": "tuple"
            },
            {
              "components": [
                {
                  "internalType": "bool",
                  "name": "requirementsMet",
                  "type": "bool"
                },
                {
                  "internalType": "address",
                  "name": "borrower",
                  "type": "address"
                }
              ],
              "internalType": "struct PulpLibrary.Borrower",
              "name": "borrowerData",
              "type": "tuple"
            }
          ],
          "indexed": false,
          "internalType": "struct PulpLibrary.Agreement",
          "name": "loanAgreement",
          "type": "tuple"
        },
        {
          "indexed": false,
          "internalType": "uint256",
          "name": "timestamp",
          "type": "uint256"
        }
      ],
      "name": "Borrow",
      "type": "event"
    },
    {
      "anonymous": false,
      "inputs": [
        {
          "indexed": true,
          "internalType": "address",
          "name": "lenderAddress",
          "type": "address"
        },
        {
          "indexed": true,
          "internalType": "address",
          "name": "receiverAddress",
          "type": "address"
        },
        {
          "indexed": false,
          "internalType": "uint256",
          "name": "amount",
          "type": "uint256"
        },
        {
          "indexed": false,
          "internalType": "uint256",
          "name": "timestamp",
          "type": "uint256"
        }
      ],
      "name": "Deposit",
      "type": "event"
    },
    {
      "anonymous": false,
      "inputs": [
        {
          "indexed": true,
          "internalType": "address",
          "name": "previousOwner",
          "type": "address"
        },
        {
          "indexed": true,
          "internalType": "address",
          "name": "newOwner",
          "type": "address"
        }
      ],
      "name": "OwnershipTransferred",
      "type": "event"
    },
    {
      "anonymous": false,
      "inputs": [
        {
          "indexed": true,
          "internalType": "address",
          "name": "lenderAddress",
          "type": "address"
        },
        {
          "indexed": true,
          "internalType": "address",
          "name": "borrowerAddress",
          "type": "address"
        },
        {
          "indexed": false,
          "internalType": "uint256",
          "name": "amount",
          "type": "uint256"
        },
        {
          "components": [
            {
              "internalType": "address",
              "name": "lenderAddress",
              "type": "address"
            },
            {
              "internalType": "address",
              "name": "borrowerAddress",
              "type": "address"
            },
            {
              "internalType": "uint256",
              "name": "currentRepaymentAmount",
              "type": "uint256"
            },
            {
              "internalType": "uint256",
              "name": "principalBorrowAmount",
              "type": "uint256"
            },
            {
              "internalType": "uint256",
              "name": "interestRate",
              "type": "uint256"
            },
            {
              "internalType": "uint256",
              "name": "repayByTimestamp",
              "type": "uint256"
            },
            {
              "internalType": "uint256",
              "name": "createdDate",
              "type": "uint256"
            },
            {
              "components": [
                {
                  "internalType": "uint64[]",
                  "name": "requirementIds",
                  "type": "uint64[]"
                },
                {
                  "internalType": "address",
                  "name": "lender",
                  "type": "address"
                }
              ],
              "internalType": "struct PulpLibrary.Lender",
              "name": "lenderData",
              "type": "tuple"
            },
            {
              "components": [
                {
                  "internalType": "bool",
                  "name": "requirementsMet",
                  "type": "bool"
                },
                {
                  "internalType": "address",
                  "name": "borrower",
                  "type": "address"
                }
              ],
              "internalType": "struct PulpLibrary.Borrower",
              "name": "borrowerData",
              "type": "tuple"
            }
          ],
          "indexed": false,
          "internalType": "struct PulpLibrary.Agreement",
          "name": "loanAgreement",
          "type": "tuple"
        },
        {
          "indexed": false,
          "internalType": "uint256",
          "name": "timestamp",
          "type": "uint256"
        }
      ],
      "name": "Repay",
      "type": "event"
    },
    {
      "inputs": [],
      "name": "AGE_CHECK_ID",
      "outputs": [
        {
          "internalType": "uint64",
          "name": "",
          "type": "uint64"
        }
      ],
      "stateMutability": "view",
      "type": "function"
    },
    {
      "inputs": [],
      "name": "BANKLESSDAO_PARTICIPANT_CHECK_ID",
      "outputs": [
        {
          "internalType": "uint64",
          "name": "",
          "type": "uint64"
        }
      ],
      "stateMutability": "view",
      "type": "function"
    },
    {
      "inputs": [],
      "name": "CREDIT_SCORE_CHECK_ID",
      "outputs": [
        {
          "internalType": "uint64",
          "name": "",
          "type": "uint64"
        }
      ],
      "stateMutability": "view",
      "type": "function"
    },
    {
      "inputs": [],
      "name": "DEFAULT_EXPIRATION_TIMESPAN",
      "outputs": [
        {
          "internalType": "uint256",
          "name": "",
          "type": "uint256"
        }
      ],
      "stateMutability": "view",
      "type": "function"
    },
    {
      "inputs": [],
      "name": "DEFAULT_INTEREST_RATE",
      "outputs": [
        {
          "internalType": "uint256",
          "name": "",
          "type": "uint256"
        }
      ],
      "stateMutability": "view",
      "type": "function"
    },
    {
      "inputs": [],
      "name": "GPA_CHECK_ID",
      "outputs": [
        {
          "internalType": "uint64",
          "name": "",
          "type": "uint64"
        }
      ],
      "stateMutability": "view",
      "type": "function"
    },
    {
      "inputs": [],
      "name": "INCOME_CHECK_ID",
      "outputs": [
        {
          "internalType": "uint64",
          "name": "",
          "type": "uint64"
        }
      ],
      "stateMutability": "view",
      "type": "function"
    },
    {
      "inputs": [],
      "name": "MAX_LOAN_AMOUNT",
      "outputs": [
        {
          "internalType": "uint256",
          "name": "",
          "type": "uint256"
        }
      ],
      "stateMutability": "view",
      "type": "function"
    },
    {
      "inputs": [],
      "name": "SHEFI_PARTICIPANT_CHECK_ID",
      "outputs": [
        {
          "internalType": "uint64",
          "name": "",
          "type": "uint64"
        }
      ],
      "stateMutability": "view",
      "type": "function"
    },
    {
      "inputs": [
        {
          "components": [
            {
              "internalType": "uint64[]",
              "name": "requirementIds",
              "type": "uint64[]"
            },
            {
              "internalType": "uint256",
              "name": "loanOfferAmount",
              "type": "uint256"
            },
            {
              "internalType": "uint256",
              "name": "interestRate",
              "type": "uint256"
            },
            {
              "internalType": "address",
              "name": "lender",
              "type": "address"
            }
          ],
          "internalType": "struct PulpLibrary.Offer",
          "name": "_loanOffer",
          "type": "tuple"
        }
      ],
      "name": "addLoanOffer",
      "outputs": [],
      "stateMutability": "nonpayable",
      "type": "function"
    },
    {
      "inputs": [
        {
          "internalType": "address",
          "name": "",
          "type": "address"
        }
      ],
      "name": "addressToId",
      "outputs": [
        {
          "internalType": "uint256",
          "name": "",
          "type": "uint256"
        }
      ],
      "stateMutability": "view",
      "type": "function"
    },
    {
      "inputs": [
        {
          "internalType": "address",
          "name": "borrowerAddress",
          "type": "address"
        },
        {
          "internalType": "address",
          "name": "lenderAddress",
          "type": "address"
        },
        {
          "components": [
            {
              "internalType": "address",
              "name": "lenderAddress",
              "type": "address"
            },
            {
              "internalType": "address",
              "name": "borrowerAddress",
              "type": "address"
            },
            {
              "internalType": "uint256",
              "name": "currentRepaymentAmount",
              "type": "uint256"
            },
            {
              "internalType": "uint256",
              "name": "principalBorrowAmount",
              "type": "uint256"
            },
            {
              "internalType": "uint256",
              "name": "interestRate",
              "type": "uint256"
            },
            {
              "internalType": "uint256",
              "name": "repayByTimestamp",
              "type": "uint256"
            },
            {
              "internalType": "uint256",
              "name": "createdDate",
              "type": "uint256"
            },
            {
              "components": [
                {
                  "internalType": "uint64[]",
                  "name": "requirementIds",
                  "type": "uint64[]"
                },
                {
                  "internalType": "address",
                  "name": "lender",
                  "type": "address"
                }
              ],
              "internalType": "struct PulpLibrary.Lender",
              "name": "lenderData",
              "type": "tuple"
            },
            {
              "components": [
                {
                  "internalType": "bool",
                  "name": "requirementsMet",
                  "type": "bool"
                },
                {
                  "internalType": "address",
                  "name": "borrower",
                  "type": "address"
                }
              ],
              "internalType": "struct PulpLibrary.Borrower",
              "name": "borrowerData",
              "type": "tuple"
            }
          ],
          "internalType": "struct PulpLibrary.Agreement",
          "name": "loanAgreement",
          "type": "tuple"
        }
      ],
      "name": "borrow",
      "outputs": [],
      "stateMutability": "payable",
      "type": "function"
    },
    {
      "inputs": [
        {
          "components": [
            {
              "internalType": "uint64[]",
              "name": "requirementIds",
              "type": "uint64[]"
            },
            {
              "internalType": "address",
              "name": "lender",
              "type": "address"
            }
          ],
          "internalType": "struct PulpLibrary.Lender",
          "name": "lender",
          "type": "tuple"
        },
        {
          "components": [
            {
              "internalType": "bool",
              "name": "requirementsMet",
              "type": "bool"
            },
            {
              "internalType": "address",
              "name": "borrower",
              "type": "address"
            }
          ],
          "internalType": "struct PulpLibrary.Borrower",
          "name": "borrower",
          "type": "tuple"
        },
        {
          "components": [
            {
              "internalType": "uint64[]",
              "name": "requirementIds",
              "type": "uint64[]"
            },
            {
              "internalType": "uint256",
              "name": "loanOfferAmount",
              "type": "uint256"
            },
            {
              "internalType": "uint256",
              "name": "interestRate",
              "type": "uint256"
            },
            {
              "internalType": "address",
              "name": "lender",
              "type": "address"
            }
          ],
          "internalType": "struct PulpLibrary.Offer",
          "name": "lenderOffer",
          "type": "tuple"
        }
      ],
      "name": "createLoanAgreement",
      "outputs": [
        {
          "components": [
            {
              "internalType": "address",
              "name": "lenderAddress",
              "type": "address"
            },
            {
              "internalType": "address",
              "name": "borrowerAddress",
              "type": "address"
            },
            {
              "internalType": "uint256",
              "name": "currentRepaymentAmount",
              "type": "uint256"
            },
            {
              "internalType": "uint256",
              "name": "principalBorrowAmount",
              "type": "uint256"
            },
            {
              "internalType": "uint256",
              "name": "interestRate",
              "type": "uint256"
            },
            {
              "internalType": "uint256",
              "name": "repayByTimestamp",
              "type": "uint256"
            },
            {
              "internalType": "uint256",
              "name": "createdDate",
              "type": "uint256"
            },
            {
              "components": [
                {
                  "internalType": "uint64[]",
                  "name": "requirementIds",
                  "type": "uint64[]"
                },
                {
                  "internalType": "address",
                  "name": "lender",
                  "type": "address"
                }
              ],
              "internalType": "struct PulpLibrary.Lender",
              "name": "lenderData",
              "type": "tuple"
            },
            {
              "components": [
                {
                  "internalType": "bool",
                  "name": "requirementsMet",
                  "type": "bool"
                },
                {
                  "internalType": "address",
                  "name": "borrower",
                  "type": "address"
                }
              ],
              "internalType": "struct PulpLibrary.Borrower",
              "name": "borrowerData",
              "type": "tuple"
            }
          ],
          "internalType": "struct PulpLibrary.Agreement",
          "name": "",
          "type": "tuple"
        }
      ],
      "stateMutability": "nonpayable",
      "type": "function"
    },
    {
      "inputs": [
        {
          "internalType": "address",
          "name": "_lenderAddress",
          "type": "address"
        },
        {
          "internalType": "uint256",
          "name": "amount",
          "type": "uint256"
        }
      ],
      "name": "deposit",
      "outputs": [],
      "stateMutability": "payable",
      "type": "function"
    },
    {
      "inputs": [
        {
          "internalType": "address",
          "name": "borrowerAddress",
          "type": "address"
        }
      ],
      "name": "getLoanAgreement",
      "outputs": [
        {
          "components": [
            {
              "internalType": "address",
              "name": "lenderAddress",
              "type": "address"
            },
            {
              "internalType": "address",
              "name": "borrowerAddress",
              "type": "address"
            },
            {
              "internalType": "uint256",
              "name": "currentRepaymentAmount",
              "type": "uint256"
            },
            {
              "internalType": "uint256",
              "name": "principalBorrowAmount",
              "type": "uint256"
            },
            {
              "internalType": "uint256",
              "name": "interestRate",
              "type": "uint256"
            },
            {
              "internalType": "uint256",
              "name": "repayByTimestamp",
              "type": "uint256"
            },
            {
              "internalType": "uint256",
              "name": "createdDate",
              "type": "uint256"
            },
            {
              "components": [
                {
                  "internalType": "uint64[]",
                  "name": "requirementIds",
                  "type": "uint64[]"
                },
                {
                  "internalType": "address",
                  "name": "lender",
                  "type": "address"
                }
              ],
              "internalType": "struct PulpLibrary.Lender",
              "name": "lenderData",
              "type": "tuple"
            },
            {
              "components": [
                {
                  "internalType": "bool",
                  "name": "requirementsMet",
                  "type": "bool"
                },
                {
                  "internalType": "address",
                  "name": "borrower",
                  "type": "address"
                }
              ],
              "internalType": "struct PulpLibrary.Borrower",
              "name": "borrowerData",
              "type": "tuple"
            }
          ],
          "internalType": "struct PulpLibrary.Agreement",
          "name": "",
          "type": "tuple"
        }
      ],
      "stateMutability": "view",
      "type": "function"
    },
    {
      "inputs": [],
      "name": "getLoanOffers",
      "outputs": [
        {
          "components": [
            {
              "internalType": "uint64[]",
              "name": "requirementIds",
              "type": "uint64[]"
            },
            {
              "internalType": "uint256",
              "name": "loanOfferAmount",
              "type": "uint256"
            },
            {
              "internalType": "uint256",
              "name": "interestRate",
              "type": "uint256"
            },
            {
              "internalType": "address",
              "name": "lender",
              "type": "address"
            }
          ],
          "internalType": "struct PulpLibrary.Offer[]",
          "name": "",
          "type": "tuple[]"
        }
      ],
      "stateMutability": "view",
      "type": "function"
    },
    {
      "inputs": [],
      "name": "getSupportedRequests",
      "outputs": [
        {
          "internalType": "uint64[]",
          "name": "arr",
          "type": "uint64[]"
        }
      ],
      "stateMutability": "view",
      "type": "function"
    },
    {
      "inputs": [
        {
          "internalType": "uint64",
          "name": "requestId",
          "type": "uint64"
        }
      ],
      "name": "getZKPRequest",
      "outputs": [
        {
          "components": [
            {
              "internalType": "uint256",
              "name": "schema",
              "type": "uint256"
            },
            {
              "internalType": "uint256",
              "name": "slotIndex",
              "type": "uint256"
            },
            {
              "internalType": "uint256",
              "name": "operator",
              "type": "uint256"
            },
            {
              "internalType": "uint256[]",
              "name": "value",
              "type": "uint256[]"
            },
            {
              "internalType": "string",
              "name": "circuitId",
              "type": "string"
            }
          ],
          "internalType": "struct ICircuitValidator.CircuitQuery",
          "name": "",
          "type": "tuple"
        }
      ],
      "stateMutability": "view",
      "type": "function"
    },
    {
      "inputs": [
        {
          "internalType": "uint256",
          "name": "",
          "type": "uint256"
        }
      ],
      "name": "idToAddress",
      "outputs": [
        {
          "internalType": "address",
          "name": "",
          "type": "address"
        }
      ],
      "stateMutability": "view",
      "type": "function"
    },
    {
      "inputs": [],
      "name": "initiateBorrower",
      "outputs": [],
      "stateMutability": "nonpayable",
      "type": "function"
    },
    {
      "inputs": [
        {
          "internalType": "uint64[]",
          "name": "_requirementIds",
          "type": "uint64[]"
        },
        {
          "internalType": "uint256",
          "name": "_loanOfferAmount",
          "type": "uint256"
        },
        {
          "internalType": "uint256",
          "name": "_interestRate",
          "type": "uint256"
        }
      ],
      "name": "initiateLender",
      "outputs": [],
      "stateMutability": "nonpayable",
      "type": "function"
    },
    {
      "inputs": [],
      "name": "loanOffer",
      "outputs": [
        {
          "internalType": "contract LoanOffer",
          "name": "",
          "type": "address"
        }
      ],
      "stateMutability": "view",
      "type": "function"
    },
    {
      "inputs": [
        {
          "internalType": "uint256",
          "name": "",
          "type": "uint256"
        }
      ],
      "name": "loanOffers",
      "outputs": [
        {
          "internalType": "uint256",
          "name": "loanOfferAmount",
          "type": "uint256"
        },
        {
          "internalType": "uint256",
          "name": "interestRate",
          "type": "uint256"
        },
        {
          "internalType": "address",
          "name": "lender",
          "type": "address"
        }
      ],
      "stateMutability": "view",
      "type": "function"
    },
    {
      "inputs": [],
      "name": "owner",
      "outputs": [
        {
          "internalType": "address",
          "name": "",
          "type": "address"
        }
      ],
      "stateMutability": "view",
      "type": "function"
    },
    {
      "inputs": [
        {
          "internalType": "address",
          "name": "",
          "type": "address"
        },
        {
          "internalType": "uint64",
          "name": "",
          "type": "uint64"
        }
      ],
      "name": "proofs",
      "outputs": [
        {
          "internalType": "bool",
          "name": "",
          "type": "bool"
        }
      ],
      "stateMutability": "view",
      "type": "function"
    },
    {
      "inputs": [
        {
          "internalType": "address",
          "name": "lenderAddress",
          "type": "address"
        }
      ],
      "name": "removeLoanAgreement",
      "outputs": [],
      "stateMutability": "nonpayable",
      "type": "function"
    },
    {
      "inputs": [],
      "name": "removeLoanOffer",
      "outputs": [],
      "stateMutability": "nonpayable",
      "type": "function"
    },
    {
      "inputs": [],
      "name": "renounceOwnership",
      "outputs": [],
      "stateMutability": "nonpayable",
      "type": "function"
    },
    {
      "inputs": [
        {
          "internalType": "address",
          "name": "borrowerAddress",
          "type": "address"
        },
        {
          "internalType": "address",
          "name": "lenderAddress",
          "type": "address"
        },
        {
          "components": [
            {
              "internalType": "address",
              "name": "lenderAddress",
              "type": "address"
            },
            {
              "internalType": "address",
              "name": "borrowerAddress",
              "type": "address"
            },
            {
              "internalType": "uint256",
              "name": "currentRepaymentAmount",
              "type": "uint256"
            },
            {
              "internalType": "uint256",
              "name": "principalBorrowAmount",
              "type": "uint256"
            },
            {
              "internalType": "uint256",
              "name": "interestRate",
              "type": "uint256"
            },
            {
              "internalType": "uint256",
              "name": "repayByTimestamp",
              "type": "uint256"
            },
            {
              "internalType": "uint256",
              "name": "createdDate",
              "type": "uint256"
            },
            {
              "components": [
                {
                  "internalType": "uint64[]",
                  "name": "requirementIds",
                  "type": "uint64[]"
                },
                {
                  "internalType": "address",
                  "name": "lender",
                  "type": "address"
                }
              ],
              "internalType": "struct PulpLibrary.Lender",
              "name": "lenderData",
              "type": "tuple"
            },
            {
              "components": [
                {
                  "internalType": "bool",
                  "name": "requirementsMet",
                  "type": "bool"
                },
                {
                  "internalType": "address",
                  "name": "borrower",
                  "type": "address"
                }
              ],
              "internalType": "struct PulpLibrary.Borrower",
              "name": "borrowerData",
              "type": "tuple"
            }
          ],
          "internalType": "struct PulpLibrary.Agreement",
          "name": "loanAgreement",
          "type": "tuple"
        }
      ],
      "name": "repay",
      "outputs": [],
      "stateMutability": "payable",
      "type": "function"
    },
    {
      "inputs": [
        {
          "internalType": "uint64",
          "name": "",
          "type": "uint64"
        }
      ],
      "name": "requestQueries",
      "outputs": [
        {
          "internalType": "uint256",
          "name": "schema",
          "type": "uint256"
        },
        {
          "internalType": "uint256",
          "name": "slotIndex",
          "type": "uint256"
        },
        {
          "internalType": "uint256",
          "name": "operator",
          "type": "uint256"
        },
        {
          "internalType": "string",
          "name": "circuitId",
          "type": "string"
        }
      ],
      "stateMutability": "view",
      "type": "function"
    },
    {
      "inputs": [
        {
          "internalType": "uint64",
          "name": "",
          "type": "uint64"
        }
      ],
      "name": "requestValidators",
      "outputs": [
        {
          "internalType": "contract ICircuitValidator",
          "name": "",
          "type": "address"
        }
      ],
      "stateMutability": "view",
      "type": "function"
    },
    {
      "inputs": [
        {
          "internalType": "uint64",
          "name": "requestId",
          "type": "uint64"
        },
        {
          "internalType": "contract ICircuitValidator",
          "name": "validator",
          "type": "address"
        },
        {
          "components": [
            {
              "internalType": "uint256",
              "name": "schema",
              "type": "uint256"
            },
            {
              "internalType": "uint256",
              "name": "slotIndex",
              "type": "uint256"
            },
            {
              "internalType": "uint256",
              "name": "operator",
              "type": "uint256"
            },
            {
              "internalType": "uint256[]",
              "name": "value",
              "type": "uint256[]"
            },
            {
              "internalType": "string",
              "name": "circuitId",
              "type": "string"
            }
          ],
          "internalType": "struct ICircuitValidator.CircuitQuery",
          "name": "query",
          "type": "tuple"
        }
      ],
      "name": "setZKPRequest",
      "outputs": [
        {
          "internalType": "bool",
          "name": "",
          "type": "bool"
        }
      ],
      "stateMutability": "nonpayable",
      "type": "function"
    },
    {
      "inputs": [
        {
          "internalType": "address",
          "name": "borrowerAddress",
          "type": "address"
        },
        {
          "components": [
            {
              "internalType": "bool",
              "name": "requirementsMet",
              "type": "bool"
            },
            {
              "internalType": "address",
              "name": "borrower",
              "type": "address"
            }
          ],
          "internalType": "struct PulpLibrary.Borrower",
          "name": "borrowerData",
          "type": "tuple"
        }
      ],
      "name": "startMatch",
      "outputs": [],
      "stateMutability": "nonpayable",
      "type": "function"
    },
    {
      "inputs": [
        {
          "internalType": "uint64",
          "name": "requestId",
          "type": "uint64"
        },
        {
          "internalType": "uint256[]",
          "name": "inputs",
          "type": "uint256[]"
        },
        {
          "internalType": "uint256[2]",
          "name": "a",
          "type": "uint256[2]"
        },
        {
          "internalType": "uint256[2][2]",
          "name": "b",
          "type": "uint256[2][2]"
        },
        {
          "internalType": "uint256[2]",
          "name": "c",
          "type": "uint256[2]"
        }
      ],
      "name": "submitZKPResponse",
      "outputs": [
        {
          "internalType": "bool",
          "name": "",
          "type": "bool"
        }
      ],
      "stateMutability": "nonpayable",
      "type": "function"
    },
    {
      "inputs": [
        {
          "internalType": "uint256",
          "name": "",
          "type": "uint256"
        }
      ],
      "name": "supportedRequests",
      "outputs": [
        {
          "internalType": "uint64",
          "name": "",
          "type": "uint64"
        }
      ],
      "stateMutability": "view",
      "type": "function"
    },
    {
      "inputs": [
        {
          "internalType": "address",
          "name": "newOwner",
          "type": "address"
        }
      ],
      "name": "transferOwnership",
      "outputs": [],
      "stateMutability": "nonpayable",
      "type": "function"
    },
    {
      "inputs": [],
      "name": "updateLoanAgreement",
      "outputs": [],
      "stateMutability": "nonpayable",
      "type": "function"
    },
    {
      "stateMutability": "payable",
      "type": "receive"
    }
  ],
  "bytecode": {
    "object": "0x600160058181556101406040526080918252600260a052600360c052600460e0526101005260066101208190526200003a91600d91620000aa565b503480156200004857600080fd5b5062000054336200005a565b62000167565b600080546001600160a01b038381166001600160a01b0319831681178455604051919092169283917f8be0079c531659141344cd1fd0a4f28419497f9722a3daafe3b4186f6b6457e09190a35050565b6002830191839082156200013e5791602002820160005b838211156200010757835183826101000a8154816001600160401b03021916908360ff1602179055509260200192600801602081600701049283019260010302620000c1565b80156200013c5782816101000a8154906001600160401b03021916905560080160208160070104928301926001030262000107565b505b506200014c92915062000150565b5090565b5b808211156200014c576000815560010162000151565b61319e80620001776000396000f3fe60806040526004361061021e5760003560e01c80639716901111610123578063c76d0845116100ab578063d412f8d11161006f578063d412f8d11461066e578063efc2f05214610685578063f1435326146106a7578063f2fde38b146106c7578063fee207e6146106e757600080fd5b8063c76d0845146105cb578063ca92c1fa146105f8578063cb0e0d7d14610618578063ce21dd2014610645578063ceba17941461065857600080fd5b8063b45c0fdf116100f2578063b45c0fdf14610521578063b68967e21461056c578063bc106bb11461058c578063bcc6ae71146105a1578063bd737cd3146105b657600080fd5b806397169011146104a1578063a8723114146104b6578063ad823ece146104ec578063b07587fb1461050157600080fd5b806347e7ef24116101a65780636854db8f116101755780636854db8f14610409578063715018a61461041e5780637e77c63f146104335780638da5cb5b1461045357806396bf47411461047157600080fd5b806347e7ef24146103965780634fcec66f146103a957806360873efa146103d657806365fca409146103e957600080fd5b80632aa66668116101ed5780632aa66668146102c05780632c7bdd4b146102e057806330d2617714610324578063316f86391461035157806337ba95231461037457600080fd5b806307e1476b1461022a57806323b32b301461024c57806324b487af146102585780632a2d0c471461026d57600080fd5b3661022557005b600080fd5b34801561023657600080fd5b5061024a6102453660046122e4565b610707565b005b34801561024a57600080fd5b34801561026457600080fd5b5061024a61086e565b34801561027957600080fd5b506102a361028836600461231a565b6009602052600090815260409020546001600160a01b031681565b6040516001600160a01b0390911681526020015b60405180910390f35b3480156102cc57600080fd5b5061024a6102db36600461244d565b610893565b3480156102ec57600080fd5b506103006102fb36600461231a565b610937565b6040805193845260208401929092526001600160a01b0316908201526060016102b7565b34801561033057600080fd5b50610339600281565b6040516001600160401b0390911681526020016102b7565b34801561035d57600080fd5b50610366600f81565b6040519081526020016102b7565b34801561038057600080fd5b50610389610976565b6040516102b79190612489565b61024a6103a43660046124d6565b610a00565b3480156103b557600080fd5b506103c96103c4366004612502565b610aea565b6040516102b79190612646565b61024a6103e43660046126a8565b610c36565b3480156103f557600080fd5b50600c546102a3906001600160a01b031681565b34801561041557600080fd5b50610339600681565b34801561042a57600080fd5b5061024a610d5a565b34801561043f57600080fd5b5061024a61044e366004612502565b610d6c565b34801561045f57600080fd5b506000546001600160a01b03166102a3565b34801561047d57600080fd5b5061049161048c3660046127a5565b610df9565b6040516102b7949392919061280f565b3480156104ad57600080fd5b50610339600481565b3480156104c257600080fd5b506102a36104d13660046127a5565b6003602052600090815260409020546001600160a01b031681565b3480156104f857600080fd5b5061024a610eac565b34801561050d57600080fd5b506103c961051c366004612834565b610f01565b34801561052d57600080fd5b5061055c61053c3660046128a8565b600160209081526000928352604080842090915290825290205460ff1681565b60405190151581526020016102b7565b34801561057857600080fd5b5061055c61058736600461298c565b61115e565b34801561059857600080fd5b50610339600381565b3480156105ad57600080fd5b50610339600581565b3480156105c257600080fd5b50610339600181565b3480156105d757600080fd5b506105eb6105e63660046127a5565b6113bc565b6040516102b79190612a88565b34801561060457600080fd5b5061024a610613366004612ae8565b611516565b34801561062457600080fd5b50610366610633366004612502565b600a6020526000908152604090205481565b61024a6106533660046126a8565b611549565b34801561066457600080fd5b5061036661271081565b34801561067a57600080fd5b50610366622820a881565b34801561069157600080fd5b5061069a611641565b6040516102b79190612b35565b3480156106b357600080fd5b506103396106c236600461231a565b611757565b3480156106d357600080fd5b5061024a6106e2366004612502565b611794565b3480156106f357600080fd5b5061055c610702366004612bc9565b61180a565b600c54604080516377e1782960e11b815290516000926001600160a01b03169163efc2f05291600480830192869291908290030181865afa158015610750573d6000803e3d6000fd5b505050506040513d6000823e601f3d908101601f191682016040526107789190810190612cfd565b905060008151116107d05760405162461bcd60e51b815260206004820152601860248201527f4e6f206c6f616e206f666665727320617661696c61626c65000000000000000060448201526064015b60405180910390fd5b60005b81518110156108665760008282815181106107f0576107f0612e60565b60200260200101519050610802600190565b801561080c575060015b1561085357604080518082019091528151815260608201516001600160a01b03166020820152600061083f828785610f01565b905061085087846060015183611549565b50505b508061085e81612e8c565b9150506107d3565b50505050565b565b604080518082019091526000815233602082018190529061088f8282610707565b5050565b600b80546001810182556000919091528151805183926004027f0175b7a638427703f0dbe7bb9bbf987a2551717b34e79f33b5b1008d1fa01db901916108de91839160200190611f58565b50602082015181600101556040820151816002015560608201518160030160006101000a8154816001600160a01b0302191690836001600160a01b03160217905550505061093481606001518260200151610a00565b50565b600b818154811061094757600080fd5b60009182526020909120600490910201600181015460028201546003909201549092506001600160a01b031683565b606060048054806020026020016040519081016040528092919081815260200182805480156109f657602002820191906000526020600020906000905b82829054906101000a90046001600160401b03166001600160401b0316815260200190600801906020826007010492830192600103820291508084116109b35790505b5050505050905090565b600554600114610a225760405162461bcd60e51b81526004016107c790612ea5565b600260055560405182906000906001600160a01b0383169084908381818185875af1925050503d8060008114610a74576040519150601f19603f3d011682016040523d82523d6000602084013e610a79565b606091505b5050905080610a9a5760405162461bcd60e51b81526004016107c790612ec9565b6040805184815242602082015230916001600160a01b038516917fdcbc1c05240f31ff3ad067ef1ee35ce4997762752e3a095284754544f4c709d7910160405180910390a3505060016005555050565b610af2612010565b6001600160a01b03808316600090815260086020908152604091829020825161012081018452815485168152600182015490941684830152600281015484840152600381015460608086019190915260048201546080860152600582015460a0860152600682015460c08601528351600783018054948502820183018652948101848152929460e08701949193909284928491840182828015610be657602002820191906000526020600020906000905b82829054906101000a90046001600160401b03166001600160401b031681526020019060080190602082600701049283019260010382029150808411610ba35790505b5050509183525050600191909101546001600160a01b03908116602092830152918352604080518082019091526009949094015460ff811615158552610100900490911683820152015292915050565b600554600114610c585760405162461bcd60e51b81526004016107c790612ea5565b60026005556040810151608082015160a0830151600091610c7b91849190611993565b9050610c8684610d6c565b60006001600160a01b038616610c9c8385612ef2565b604051600081818185875af1925050503d8060008114610cd8576040519150601f19603f3d011682016040523d82523d6000602084013e610cdd565b606091505b5050905080610cfe5760405162461bcd60e51b81526004016107c790612ec9565b856001600160a01b0316856001600160a01b03167fa6704d335bf1949fd2c0db718ae24c9910b742f337ea897681fdf16e524232b3858742604051610d4593929190612f0a565b60405180910390a35050600160055550505050565b610d626119b9565b61086c6000611a13565b6001600160a01b038116600090815260086020526040812080546001600160a01b0319908116825560018201805490911690556002810182905560038101829055600481018290556005810182905560068101829055906007820181610dd282826120b7565b5060010180546001600160a01b03191690555060090180546001600160a81b031916905550565b600260208190526000918252604090912080546001820154928201546004830180549294939192610e2990612f33565b80601f0160208091040260200160405190810160405280929190818152602001828054610e5590612f33565b8015610ea25780601f10610e7757610100808354040283529160200191610ea2565b820191906000526020600020905b815481529060010190602001808311610e8557829003601f168201915b5050505050905084565b600b805480610ebd57610ebd612f6d565b60008281526020812060001990920191600483020190610edd82826120b7565b50600060018201819055600282015560030180546001600160a01b03191690559055565b610f09612010565b602080840151858201516001600160a01b038083166000908152600890945260409093205491929091818316911603610f985760405162461bcd60e51b815260206004820152602b60248201527f416c726561647920696e206c6f616e2061677265656d656e742077697468207460448201526a3434b9903632b73232b91760a91b60648201526084016107c7565b6000610fa7622820a842612ef2565b9050600060405180610120016040528089602001516001600160a01b0316815260200188602001516001600160a01b0316815260200187602001518152602001876020015181526020018760400151815260200183815260200142815260200189815260200188815250905080600860008a602001516001600160a01b03166001600160a01b0316815260200190815260200160002060008201518160000160006101000a8154816001600160a01b0302191690836001600160a01b0316021790555060208201518160010160006101000a8154816001600160a01b0302191690836001600160a01b0316021790555060408201518160020155606082015181600301556080820151816004015560a0820151816005015560c0820151816006015560e08201518160070160008201518160000190805190602001906110ee929190611f58565b5060209182015160019190910180546001600160a01b0319166001600160a01b03928316179055610100938401518051600994909401805491909301516001600160a81b0319909116931515610100600160a81b0319169390931792169092021790559350505b50509392505050565b6001600160401b0385166000908152600360205260408120546001600160a01b03166111dd5760405162461bcd60e51b815260206004820152602860248201527f76616c696461746f72206973206e6f742073657420666f7220746869732072656044820152671c5d595cdd081a5960c21b60648201526084016107c7565b6001600160401b03861660009081526002602052604081205490036112505760405162461bcd60e51b8152602060048201526024808201527f7175657279206973206e6f742073657420666f722074686973207265717565736044820152631d081a5960e21b60648201526084016107c7565b6001600160401b03861660009081526003602052604090205461127f90879087906001600160a01b0316611a63565b6001600160401b03861660009081526003602090815260408083205460029092529182902091516319f8754160e21b81526001600160a01b03909116916367e1d504916112d791899189918991899190600401613045565b602060405180830381865afa1580156112f4573d6000803e3d6000fd5b505050506040513d601f19601f820116820180604052508101906113189190613132565b6113645760405162461bcd60e51b815260206004820152601b60248201527f70726f6f6620726573706f6e7365206973206e6f742076616c6964000000000060448201526064016107c7565b3360009081526001602081815260408084206001600160401b038b1685528252808420805460ff1916909317909255600390529020546113b090879087906001600160a01b0316611b53565b50600195945050505050565b6113ee6040518060a0016040528060008152602001600081526020016000815260200160608152602001606081525090565b6001600160401b038216600090815260026020818152604092839020835160a08101855281548152600182015481840152928101548385015260038101805485518185028101850190965280865293949193606086019383018282801561147457602002820191906000526020600020905b815481526020019060010190808311611460575b5050505050815260200160048201805461148d90612f33565b80601f01602080910402602001604051908101604052809291908181526020018280546114b990612f33565b80156115065780601f106114db57610100808354040283529160200191611506565b820191906000526020600020905b8154815290600101906020018083116114e957829003601f168201915b5050505050815250509050919050565b604080516080810182528481526020810184905290810182905233606082018190529061154281610893565b5050505050565b60055460011461156b5760405162461bcd60e51b81526004016107c790612ea5565b600260055560608101516040516000906001600160a01b0385169083908381818185875af1925050503d80600081146115c0576040519150601f19603f3d011682016040523d82523d6000602084013e6115c5565b606091505b50509050806115e65760405162461bcd60e51b81526004016107c790612ec9565b846001600160a01b0316846001600160a01b03167f9f7d78e01265d3cc90e00e3604b0bba9b3303abadf4c1cb778212714fca0c35184864260405161162d93929190612f0a565b60405180910390a350506001600555505050565b6060600b805480602002602001604051908101604052809291908181526020016000905b8282101561174e57838290600052602060002090600402016040518060800160405290816000820180548060200260200160405190810160405280929190818152602001828054801561170957602002820191906000526020600020906000905b82829054906101000a90046001600160401b03166001600160401b0316815260200190600801906020826007010492830192600103820291508084116116c65790505b5050509183525050600182810154602080840191909152600284015460408401526003909301546001600160a01b031660609092019190915291835292019101611665565b50505050905090565b6004818154811061176757600080fd5b9060005260206000209060049182820401919006600802915054906101000a90046001600160401b031681565b61179c6119b9565b6001600160a01b0381166118015760405162461bcd60e51b815260206004820152602660248201527f4f776e61626c653a206e6577206f776e657220697320746865207a65726f206160448201526564647265737360d01b60648201526084016107c7565b61093481611a13565b60006118146119b9565b6001600160401b0384166000908152600360205260409020546001600160a01b0316611898576004805460018101825560008290529081047f8a35acfbc15ff81a39ae7d344fd709f28e8600b4aa8c65c6b64bfe7fe36bd19b0180546001600160401b0380881660086003909516949094026101000a938402930219169190911790555b60608201516001600160401b038516600090815260026020908152604090912082516118cd93600390920192909101906120dc565b506040808301516001600160401b038616600090815260026020818152939091209081019190915560808401518051611910936004909301929190910190612117565b506020808301516001600160401b0386166000908152600283526040902060018101919091558351815560808401518051611955936004909301929190910190612117565b50506001600160401b038316600090815260036020526040902080546001600160a01b0384166001600160a01b031990911617905560019392505050565b600083816119a385856001611caa565b90506119af8282611d67565b9695505050505050565b6000546001600160a01b0316331461086c5760405162461bcd60e51b815260206004820181905260248201527f4f776e61626c653a2063616c6c6572206973206e6f7420746865206f776e657260448201526064016107c7565b600080546001600160a01b038381166001600160a01b0319831681178455604051919092169283917f8be0079c531659141344cd1fd0a4f28419497f9722a3daafe3b4186f6b6457e09190a35050565b6000611ae883836001600160a01b0316639f442afa6040518163ffffffff1660e01b8152600401602060405180830381865afa158015611aa7573d6000803e3d6000fd5b505050506040513d601f19601f82011682018060405250810190611acb919061314f565b81518110611adb57611adb612e60565b6020026020010151611d8c565b9050336001600160a01b038216146108665760405162461bcd60e51b815260206004820152602860248201527f6164647265737320696e2070726f6f66206973206e6f7420612073656e646572604482015267206164647265737360c01b60648201526084016107c7565b611b5c83611eef565b8015611b755750336000908152600a6020526040902054155b611bd35760405162461bcd60e51b815260206004820152602960248201527f70726f6f662063616e206e6f74206265207375626d6974746564206d6f7265206044820152687468616e206f6e636560b81b60648201526084016107c7565b600082826001600160a01b0316639f442afa6040518163ffffffff1660e01b8152600401602060405180830381865afa158015611c14573d6000803e3d6000fd5b505050506040513d601f19601f82011682018060405250810190611c38919061314f565b81518110611c4857611c48612e60565b602090810291909101810151600081815260099092526040909120549091506001600160a01b031661086657336000818152600a60209081526040808320859055938252600990529190912080546001600160a01b0319169091179055505050565b6000838015611d4a57600184168015611cc557859250611cc9565b8392505b508260011c8460011c94505b8415611d44578560801c15611ce957600080fd5b85860281810181811015611cfc57600080fd5b8590049650506001851615611d39578583028387820414611d22578615611d2257600080fd5b81810181811015611d3257600080fd5b8590049350505b8460011c9450611cd5565b50611d5f565b838015611d5a5760009250611155565b839250505b509392505050565b8181028215838205831417611d7b57600080fd5b670de0b6b3a7640000900592915050565b6000611ee9611ee2611edd8460008190506008817eff00ff00ff00ff00ff00ff00ff00ff00ff00ff00ff00ff00ff00ff00ff00ff16901b6008827fff00ff00ff00ff00ff00ff00ff00ff00ff00ff00ff00ff00ff00ff00ff00ff0016901c1790506010817dffff0000ffff0000ffff0000ffff0000ffff0000ffff0000ffff0000ffff16901b6010827fffff0000ffff0000ffff0000ffff0000ffff0000ffff0000ffff0000ffff000016901c1790506020817bffffffff00000000ffffffff00000000ffffffff00000000ffffffff16901b6020827fffffffff00000000ffffffff00000000ffffffff00000000ffffffff0000000016901c17905060408177ffffffffffffffff0000000000000000ffffffffffffffff16901b60408277ffffffffffffffff0000000000000000ffffffffffffffff1916901c179050608081901b608082901c179050919050565b611f2e565b6014015190565b92915050565b60006006826001600160401b0316108015611f1457506001826001600160401b031610155b15611f2157506001919050565b506000919050565b919050565b60408051602080825281830190925260609160208201818036833750505060208101929092525090565b828054828255906000526020600020906003016004900481019282156120005791602002820160005b83821115611fcb57835183826101000a8154816001600160401b0302191690836001600160401b031602179055509260200192600801602081600701049283019260010302611f81565b8015611ffe5782816101000a8154906001600160401b030219169055600801602081600701049283019260010302611fcb565b505b5061200c92915061218a565b5090565b60405180610120016040528060006001600160a01b0316815260200160006001600160a01b03168152602001600081526020016000815260200160008152602001600081526020016000815260200161208560405180604001604052806060815260200160006001600160a01b031681525090565b81526020016120b2604051806040016040528060001515815260200160006001600160a01b031681525090565b905290565b508054600082556003016004900490600052602060002090810190610934919061218a565b828054828255906000526020600020908101928215612000579160200282015b828111156120005782518255916020019190600101906120fc565b82805461212390612f33565b90600052602060002090601f0160209004810192826121455760008555612000565b82601f1061215e57805160ff1916838001178555612000565b8280016001018555821561200057918201828111156120005782518255916020019190600101906120fc565b5b8082111561200c576000815560010161218b565b6001600160a01b038116811461093457600080fd5b8035611f298161219f565b634e487b7160e01b600052604160045260246000fd5b604080519081016001600160401b03811182821017156121f7576121f76121bf565b60405290565b604051608081016001600160401b03811182821017156121f7576121f76121bf565b60405161012081016001600160401b03811182821017156121f7576121f76121bf565b60405160a081016001600160401b03811182821017156121f7576121f76121bf565b604051601f8201601f191681016001600160401b038111828210171561228c5761228c6121bf565b604052919050565b801515811461093457600080fd5b6000604082840312156122b457600080fd5b6122bc6121d5565b905081356122c981612294565b815260208201356122d98161219f565b602082015292915050565b600080606083850312156122f757600080fd5b82356123028161219f565b915061231184602085016122a2565b90509250929050565b60006020828403121561232c57600080fd5b5035919050565b60006001600160401b0382111561234c5761234c6121bf565b5060051b60200190565b6001600160401b038116811461093457600080fd5b600082601f83011261237c57600080fd5b8135602061239161238c83612333565b612264565b82815260059290921b840181019181810190868411156123b057600080fd5b8286015b848110156123d45780356123c781612356565b83529183019183016123b4565b509695505050505050565b6000608082840312156123f157600080fd5b6123f96121fd565b905081356001600160401b0381111561241157600080fd5b61241d8482850161236b565b825250602082013560208201526040820135604082015260608201356124428161219f565b606082015292915050565b60006020828403121561245f57600080fd5b81356001600160401b0381111561247557600080fd5b612481848285016123df565b949350505050565b6020808252825182820181905260009190848201906040850190845b818110156124ca5783516001600160401b0316835292840192918401916001016124a5565b50909695505050505050565b600080604083850312156124e957600080fd5b82356124f48161219f565b946020939093013593505050565b60006020828403121561251457600080fd5b813561251f8161219f565b9392505050565b600081518084526020808501945080840160005b8381101561255f5781516001600160401b03168752958201959082019060010161253a565b509495945050505050565b600081516040845261257f6040850182612526565b6020938401516001600160a01b0316949093019390935250919050565b600061014060018060a01b03835116845260208301516125c760208601826001600160a01b03169052565b5060408301516040850152606083015160608501526080830151608085015260a083015160a085015260c083015160c085015260e08301518160e08601526126118286018261256a565b9150506101008084015161263c828701828051151582526020908101516001600160a01b0316910152565b5090949350505050565b60208152600061251f602083018461259c565b60006040828403121561266b57600080fd5b6126736121d5565b905081356001600160401b0381111561268b57600080fd5b6126978482850161236b565b82525060208201356122d98161219f565b6000806000606084860312156126bd57600080fd5b83356126c88161219f565b925060208401356126d88161219f565b915060408401356001600160401b03808211156126f457600080fd5b90850190610140828803121561270957600080fd5b61271161221f565b61271a836121b4565b8152612728602084016121b4565b602082015260408301356040820152606083013560608201526080830135608082015260a083013560a082015260c083013560c082015260e08301358281111561277157600080fd5b61277d89828601612659565b60e0830152506101009150612794888385016122a2565b828201528093505050509250925092565b6000602082840312156127b757600080fd5b813561251f81612356565b6000815180845260005b818110156127e8576020818501810151868301820152016127cc565b818111156127fa576000602083870101525b50601f01601f19169290920160200192915050565b8481528360208201528260408201526080606082015260006119af60808301846127c2565b60008060006080848603121561284957600080fd5b83356001600160401b038082111561286057600080fd5b61286c87838801612659565b945061287b87602088016122a2565b9350606086013591508082111561289157600080fd5b5061289e868287016123df565b9150509250925092565b600080604083850312156128bb57600080fd5b82356128c68161219f565b915060208301356128d681612356565b809150509250929050565b600082601f8301126128f257600080fd5b8135602061290261238c83612333565b82815260059290921b8401810191818101908684111561292157600080fd5b8286015b848110156123d45780358352918301918301612925565b600082601f83011261294d57600080fd5b6129556121d5565b80604084018581111561296757600080fd5b845b81811015612981578035845260209384019301612969565b509095945050505050565b600080600080600061014086880312156129a557600080fd5b85356129b081612356565b94506020868101356001600160401b038111156129cc57600080fd5b6129d889828a016128e1565b95505060406129e989828a0161293c565b945088609f8901126129fa57600080fd5b612a026121d5565b806101008a018b811115612a1557600080fd5b60808b015b81811015612a3957612a2c8d8261293c565b8452928501928401612a1a565b50819650612a478c8261293c565b955050505050509295509295909350565b600081518084526020808501945080840160005b8381101561255f57815187529582019590820190600101612a6c565b602081528151602082015260208201516040820152604082015160608201526000606083015160a06080840152612ac260c0840182612a58565b90506080840151601f198483030160a0850152612adf82826127c2565b95945050505050565b600080600060608486031215612afd57600080fd5b83356001600160401b03811115612b1357600080fd5b612b1f8682870161236b565b9660208601359650604090950135949350505050565b60006020808301818452808551808352604092508286019150828160051b87010184880160005b83811015612bbb57603f19898403018552815160808151818652612b8282870182612526565b838b0151878c0152898401518a8801526060938401516001600160a01b0316939096019290925250509386019390860190600101612b5c565b509098975050505050505050565b600080600060608486031215612bde57600080fd5b8335612be981612356565b9250602084810135612bfa8161219f565b925060408501356001600160401b0380821115612c1657600080fd5b9086019060a08289031215612c2a57600080fd5b612c32612242565b82358152838301358482015260408301356040820152606083013582811115612c5a57600080fd5b612c668a8286016128e1565b606083015250608083013582811115612c7e57600080fd5b80840193505088601f840112612c9357600080fd5b823582811115612ca557612ca56121bf565b612cb7601f8201601f19168601612264565b92508083528985828601011115612ccd57600080fd5b8085850186850137600085828501015250816080820152809450505050509250925092565b8051611f298161219f565b60006020808385031215612d1057600080fd5b82516001600160401b0380821115612d2757600080fd5b818501915085601f830112612d3b57600080fd5b8151612d4961238c82612333565b81815260059190911b83018401908481019088831115612d6857600080fd5b8585015b83811015612e5357805185811115612d8357600080fd5b86016080818c03601f19011215612d9957600080fd5b612da16121fd565b8882015187811115612db257600080fd5b8201603f81018d13612dc357600080fd5b89810151612dd361238c82612333565b81815260059190911b8201604001908b8101908f831115612df357600080fd5b6040840193505b82841015612e1c578351612e0d81612356565b8252928c0192908c0190612dfa565b84525050506040828101518a830152606083015190820152612e4060808301612cf2565b6060820152845250918601918601612d6c565b5098975050505050505050565b634e487b7160e01b600052603260045260246000fd5b634e487b7160e01b600052601160045260246000fd5b600060018201612e9e57612e9e612e76565b5060010190565b6020808252600a90820152695245454e5452414e435960b01b604082015260600190565b6020808252600f908201526e151c985b9cd9995c8819985a5b1959608a1b604082015260600190565b60008219821115612f0557612f05612e76565b500190565b838152606060208201526000612f23606083018561259c565b9050826040830152949350505050565b600181811c90821680612f4757607f821691505b602082108103612f6757634e487b7160e01b600052602260045260246000fd5b50919050565b634e487b7160e01b600052603160045260246000fd5b8060005b6002811015610866578151845260209384019390910190600101612f87565b8054600090600181811c9080831680612fc057607f831692505b60208084108203612fe157634e487b7160e01b600052602260045260246000fd5b83885260208801828015612ffc576001811461300d57613038565b60ff19871682528282019750613038565b60008981526020902060005b8781101561303257815484820152908601908401613019565b83019850505b5050505050505092915050565b600061014080835261305981840189612a58565b9050602061306981850189612f83565b606084018760005b600281101561309857613085838351612f83565b6040929092019190830190600101613071565b5050506130a860e0850187612f83565b83820361012085015284548252600180860154828401526002860154604084015260a0606084018190526003870180549185018290526000908152838120929160c08601905b8083101561310b57845482529383019391830191908501906130ee565b5085810360808701526131218160048b01612fa6565b9d9c50505050505050505050505050565b60006020828403121561314457600080fd5b815161251f81612294565b60006020828403121561316157600080fd5b505191905056fea264697066735822122004c1ee7a7fe85a9b9cb3d23a899d9e898c1912cd38d7924ea297e54146afcfbb64736f6c634300080d0033",
    "linkReferences": {}
  }
}